:020000040800F2
:1000000000280020B1180008F5160008FB160008AB
:1000100001170008071700080D170008000000006E
:10002000000000000000000000000000131700089E
:100030001F170008000000002B17000837170008E2
:10004000F9180008F9180008F9180008F91800084C
:10005000F9180008F9180008F9180008F91800083C
:10006000F9180008F9180008F9180008F91800082C
:10007000F9180008F9180008F9180008F91800081C
:10008000F9180008F9180008F9180008F91800080C
:10009000F9180008F9180008F9180008F9180008FC
:1000A000F9180008F9180008F9180008F9180008EC
:1000B00045170008F918000800000000F9180008AA
:1000C000F91800080000000000000000F9180008FE
:1000D00000000000F9180008F918000800000000EE
:1000E000F9180008F9180008F918000800000000C5
:1000F0000000000000000000000000000000000000
:0C01000000000000000000005FF808F1A3
:1001100010B5054C237833B9044B13B10448AFF341
:1001200000800123237010BD50000020000000005B
:100130006030000808B5034B1BB103490348AFF317
:10014000008008BD0000000054000020603000085E
:1001500070B54FF0FF0C4CF4E06C1CEA11541DBF5D
:100160001CEA135594EA0C0F95EA0C0F00F0DEF828
:100170002C4481EA030621EA4C5123EA4C5350EA0D
:10018000013518BF52EA033541F4801143F480135E
:1001900038D0A0FB02CE4FF00005E1FB02E506F0EF
:1001A0000042E0FB03E54FF00006E1FB03569CF044
:1001B000000F18BF4EF0010EA4F1FF04B6F5007F4A
:1001C00064F5407404D25FEA4E0E6D4146EB0606BC
:1001D00042EAC62141EA55514FEAC52040EA5E5045
:1001E0004FEACE2EB4F1FD0C88BFBCF5E06F1ED8EF
:1001F000BEF1004F08BF5FEA500E50F1000041EB26
:10020000045170BD06F0004646EA010140EA0200D2
:1002100081EA0301B4EB5C04C2BFD4EB0C0541EAF4
:10022000045170BD41F480114FF0000E013C00F309
:10023000AB8014F1360FDEBF002001F0004170BD2D
:10024000C4F10004203C35DA0C341BDC04F1140446
:10025000C4F1200500FA05F320FA04F001FA05F2D2
:1002600040EA020001F0004221F0004110EBD3709F
:1002700021FA04F642EB06015EEA430E08BF20EACB
:10028000D37070BDC4F10C04C4F1200500FA04F36E
:1002900020FA05F001FA04F240EA020001F0004100
:1002A00010EBD37041F100015EEA430E08BF20EA73
:1002B000D37070BDC4F1200500FA05F24EEA020EBB
:1002C00020FA04F301FA05F243EA020321FA04F0EA
:1002D00001F0004121FA04F220EA020000EBD370A1
:1002E0005EEA430E08BF20EAD37070BD94F0000FA1
:1002F0000FD101F00046400041EB010111F4801FD5
:1003000008BF013CF7D041EA060195F0000F18BF85
:10031000704703F00046520043EB030313F4801FC1
:1003200008BF013DF7D043EA0603704794EA0C0F7B
:100330000CEA135518BF95EA0C0F0CD050EA410691
:1003400018BF52EA4306D1D181EA030101F000410E
:100350004FF0000070BD50EA410606BF1046194636
:1003600052EA430619D094EA0C0F02D150EA013642
:1003700013D195EA0C0F05D152EA03361CBF104683
:1003800019460AD181EA030101F0004141F0FE4122
:1003900041F470014FF0000070BD41F0FE4141F4A6
:1003A000780170BD81F0004102E000BF83F000439E
:1003B00030B54FEA41044FEA430594EA050F08BF00
:1003C00090EA020F1FBF54EA000C55EA020C7FEAC4
:1003D000645C7FEA655C00F0E2804FEA5454D4EB41
:1003E0005555B8BF6D420CDD2C4480EA020281EA0B
:1003F000030382EA000083EA010180EA020281EA43
:100400000303362D88BF30BD11F0004F4FEA013194
:100410004FF4801C4CEA113102D0404261EB4101A3
:1004200013F0004F4FEA03334CEA133302D0524229
:1004300063EB430394EA050F00F0A780A4F10104E5
:10044000D5F1200E0DDB02FA0EFC22FA05F280181F
:1004500041F1000103FA0EF2801843FA05F3594105
:100460000EE0A5F120050EF1200E012A03FA0EFC84
:1004700028BF4CF0020C43FA05F3C01851EBE371AE
:1004800001F0004507D54FF0000EDCF1000C7EEBCB
:1004900000006EEB0101B1F5801F1BD3B1F5001F09
:1004A0000CD349085FEA30004FEA3C0C04F1010428
:1004B0004FEA445212F5800F80F09A80BCF1004F51
:1004C00008BF5FEA500C50F1000041EB045141EAD3
:1004D000050130BD5FEA4C0C404141EB0101013C9C
:1004E00028BFB1F5801FE9D291F0000F04BF01468B
:1004F0000020B1FA81F308BF2033A3F10B03B3F15D
:1005000020020CDA0C3208DD02F1140CC2F10C02EC
:1005100001FA0CF021FA02F10CE002F11402D8BF4A
:10052000C2F1200C01FA02F120FA0CFCDCBF41EA16
:100530000C019040E41AA2BF01EB0451294330BDE5
:100540006FEA04041F3C1CDA0C340EDC04F11404C2
:10055000C4F1200220FA04F001FA02F340EA030099
:1005600021FA04F345EA030130BDC4F10C04C4F1DF
:10057000200220FA02F001FA04F340EA03002946BF
:1005800030BD21FA04F0294630BD94F0000F83F409
:10059000801306BF81F480110134013D4EE77FEAEC
:1005A000645C18BF7FEA655C29D094EA050F08BF38
:1005B00090EA020F05D054EA000C04BF1946104619
:1005C00030BD91EA030F1EBF0021002030BD5FEA5D
:1005D000545C05D14000494128BF41F0004130BD85
:1005E00014F580043CBF01F5801130BD01F00045D9
:1005F00045F0FE4141F470014FF0000030BD7FEA4C
:10060000645C1ABF194610467FEA655C1CBF0B4646
:10061000024650EA013406BF52EA033591EA030F5D
:1006200041F4002130BD00BF90F0000F04BF002155
:10063000704730B54FF4806404F132044FF0000588
:100640004FF0000150E700BF90F0000F04BF002101
:10065000704730B54FF4806404F1320410F0004567
:1006600048BF40424FF000013EE700BF42004FEA62
:10067000E2014FEA31014FEA02701FBF12F07F43DF
:1006800093F07F4F81F06051704732F07F4208BF96
:10069000704793F07F4F04BF41F40021704730B59D
:1006A0004FF4607401F0004521F000411CE700BFE9
:1006B00050EA010208BF704730B54FF000050AE06C
:1006C00050EA010208BF704730B511F0004502D56D
:1006D000404261EB41014FF4806404F132045FEA6F
:1006E000915C3FF4D8AE4FF003025FEADC0C18BF18
:1006F00003325FEADC0C18BF033202EBDC02C2F10A
:10070000200300FA03FC20FA02F001FA03FE40EA9B
:100710000E0021FA02F11444BDE600BF4FF0FF3C89
:1007200006E000BF4FF0010C02E000BF4FF0010CEB
:100730004DF804CD4FEA410C7FEA6C5C4FEA430C64
:1007400018BF7FEA6C5C1BD001B050EA410C0CBFB3
:1007500052EA430C91EA030F02BF90EA020F002015
:10076000704710F1000F91EA030F58BF994208BF7C
:1007700090422CBFD8176FEAE37040F00100704739
:100780004FEA410C7FEA6C5C02D150EA013C07D190
:100790004FEA430C7FEA6C5CD6D152EA033CD3D0DB
:1007A0005DF8040B704700BF8446104662468C46D5
:1007B0001946634600E000BF01B5FFF7B7FF002808
:1007C00048BF10F1000F01BD4DF808EDFFF7F4FF31
:1007D0000CBF012000205DF808FB00BF4DF808EDBC
:1007E000FFF7EAFF34BF012000205DF808FB00BFDF
:1007F0004DF808EDFFF7E0FF94BF012000205DF801
:1008000008FB00BF4DF808EDFFF7CEFF94BF0120B5
:1008100000205DF808FB00BF4DF808EDFFF7C4FFAE
:1008200034BF012000205DF808FB00BF4FEA410201
:1008300012F5001215D211D56FF47873B3EB625232
:1008400012D94FEAC12343F0004343EA505311F059
:10085000004F23FA02F018BF404270474FF00000EB
:10086000704750EA013005D111F0004008BF6FF029
:10087000004070474FF00000704700BF80B584B063
:1008800000AF786039607B68002B02DB7B68092B46
:1008900001DD00237B600023FB6019E0FB685B0047
:1008A0003A68134419880E487A681346DB009B1A8D
:1008B000C218FB6813441B78002B14BF01230023CC
:1008C000DBB21A46074801F01AFBFB680133FB60F4
:1008D000FB68062BE2DD00BF00BF1037BD4680BDC0
:1008E00078300008000C014080B586B000AF786019
:1008F0003960354BDB6A012B61D17B68334A82FB5F
:1009000003129210DB17D31A7B617A682F4B83FB9B
:1009100002139910D317C91A0B469B000B445B00B6
:10092000D31A3B613B68294A82FB03129210DB1702
:10093000D31AFB603A68254B83FB02139910D31737
:10094000C91A0B469B000B445B00D31ABB60204BBB
:100950001B68012B13D1002210211E4801F0CFFA91
:1009600000224FF400711B4801F0C9FA1A49786956
:10097000FFF784FF1949F868FFF780FF16E0144B72
:100980001B68002B12D101221021124801F0B7FA86
:1009900001224FF400710F4801F0B1FA0E49386995
:1009A000FFF76CFF0D49B868FFF768FF084B1B683D
:1009B000C3F10103064A1360032000F00BFF00BFE0
:1009C0001837BD4680BD00BF2801002067666666F7
:1009D0006C000020000801400000002010000020F2
:1009E00080B483B000AF78607B68032B02DC7B6847
:1009F000002B02DA4FF0FF3317E00E497A681346F6
:100A0000DB009B1A9B000B4414331B68012B0BD19A
:100A100008497A681346DB009B1A9B000B44143389
:100A200000221A60012300E0002318460C37BD465F
:100A300080BC70478800002080B483B000AF78602D
:100A40007B68032B02DC7B68002B02DA4FF0FF335C
:100A50000DE009497A681346DB009B1A9B000B44A2
:100A600018331B68012B01D1012300E00023184635
:100A70000C37BD4680BC70478800002080B500AFB1
:100A80000020FFF7ADFF0346184680BD80B500AFDC
:100A90000120FFF7A5FF0346184680BD80B500AFD3
:100AA0000120FFF7C9FF0346184680BD80B500AF9F
:100AB0000220FFF795FF0346184680BD80B582B03F
:100AC00000AF00237B60F9E081497A681346DB00C0
:100AD0009B1A9B000B44043319687D487A681346BF
:100AE000DB009B1A9B0003440833196078497A683D
:100AF0001346DB009B1A9B000B44196874487A6804
:100B00001346DB009B1A9B00034404331960714AAF
:100B10007B6832F8133019466F4801F0D9F9034663
:100B200018466B497A681346DB009B1A9B000B44FE
:100B3000186067497A681346DB009B1A9B000B44D8
:100B4000196863487A681346DB009B1A9B000344CC
:100B500004331B68994240F0AE805D497A681346C1
:100B6000DB009B1A9B000B440433196858487A68D1
:100B70001346DB009B1A9B00034408331B68994211
:100B800040F0998052497A681346DB009B1A9B001B
:100B90000B44083319684E487A681346DB009B1AE9
:100BA0009B0003440C331B6899423CD048497A6847
:100BB0001346DB009B1A9B000B440833196844481A
:100BC0007A681346DB009B1A9B0003440C331960C0
:100BD0003F497A681346DB009B1A9B000B440C3399
:100BE0001B68002B14D13A497A681346DB009B1A24
:100BF0009B000B4410330A221A6035497A68134669
:100C0000DB009B1A9B000B44143301221A6052E054
:100C10002F497A681346DB009B1A9B000B44143360
:100C200000221A6047E02A497A681346DB009B1AC3
:100C30009B000B440C331B68002B32D124497A688B
:100C40001346DB009B1A9B000B4410331B68591E94
:100C50001F487A681346DB009B1A9B00034410333D
:100C600019601B497A681346DB009B1A9B000B44F2
:100C700010331B68002B1EDC15497A681346DB0015
:100C80009B1A9B000B4410330A221A6010497A68A1
:100C90001346DB009B1A9B000B44183301221A6099
:100CA00009E00B497A681346DB009B1A9B000B4452
:100CB000183300221A607B6801337B607B68022B4B
:100CC0007FF702AF00BF00BF0837BD4680BD00BF41
:100CD00088000020200000200008014080B500AFFF
:100CE000FFF7CCFE0346002B05D0154B02221A60FD
:100CF00000F070F922E0134B9B68002B05D0002018
:100D000000F0D2FA002000F065FD0E4B5B69002B6D
:100D100014D00D4B1B68002B04DD0B4B1B68013BF3
:100D2000094A1360094B1B68002B04DD074B1B6845
:100D3000013B064A1360012000F04CFD80BD00BF5E
:100D4000800000202801002074000020780000208E
:100D500080B500AFFFF7C2FF1F4B1B681F4A126828
:100D600011461846FFF7C0FD1D4B1B68032B27D803
:100D700001A252F823F000BF890D0008970D00086A
:100D8000A50D0008B30D0008164B1B6A002B1AD0E6
:100D900000F08AF817E0134B1B6A002B15D000F007
:100DA000B3F812E00F4B1B6A002B10D000F0E2F8F2
:100DB0000DE00C4B1B6A002B0BD000F03FF808E055
:100DC00000F03CF806E000BF04E000BF02E000BF16
:100DD00000E000BF00BF80BD74000020780000204C
:100DE000700000202801002080B500AF4FF47A7118
:100DF000012000F0B7FC104B1B68032B16D801A292
:100E000052F823F0150E00081B0E0008210E0008F2
:100E1000270E000800F012F80BE000F045F808E09B
:100E200000F072F805E000F0A5F802E000F006F826
:100E300000BF00BF80BD00BF7000002080B500AFC4
:100E4000012000F005FA062000F002FA022000F06E
:100E500015FA032000F012FA042000F00FFA052022
:100E600000F00CFA0C4B00221A600C4B5B684FF43C
:100E70007A7202FB03F31946022000F073FC074B61
:100E80001B68074A1360054B5B68064A1360012024
:100E900000F0A0FC00BF80BD7000002028000020F2
:100EA000740000207800002080B500AF012000F021
:100EB000CFF9052000F0CCF9022000F0DFF9032083
:100EC00000F0DCF9042000F0D9F9062000F0D6F992
:100ED0000A4B01221A600A4B9B684FF47A7202FB9C
:100EE00003F31946022000F03DFC054B9B68054AC0
:100EF0001360012000F06EFC00BF80BD7000002078
:100F0000280000207800002080B500AF032000F00A
:100F10009FF9042000F09CF9022000F0AFF90120B5
:100F200000F0ACF9062000F0A9F9052000F0A6F9C0
:100F30000C4B02221A600C4B5B684FF47A7202FB76
:100F400003F31946022000F00DFC074B5B68074ACB
:100F50001360054B1B68064A1360012000F03AFC41
:100F600000BF80BD70000020280000207400002019
:100F70007800002080B500AF022000F069F904205D
:100F800000F066F9012000F079F9032000F076F90D
:100F9000062000F073F9052000F070F90A4B0322D7
:100FA0001A600A4B9B684FF47A7202FB03F31946EE
:100FB000022000F0D7FB054B9B68054A1360012017
:100FC00000F008FC00BF80BD700000202800002059
:100FD0007400002080B500AF0B4B00221A600B4B51
:100FE0001B680B4A1360084B1B68184600F070F929
:100FF00044F62061022000F0B5FB4FF4FA710120A5
:1010000000F0B0FB00BF80BD7C0000202800002065
:10101000DC0000200000000080B500AFFFF72EFDCF
:101020000346002B23D04FF4FA71012000F09AFB05
:101030004D4B1B6801334C4A13604B4B1B68022B12
:1010400008DD494B00221A60484B01221A60FFF765
:10105000CBFE82E0444B1B68454A52F82330454A98
:101060001360414B1B68184600F032F975E0FFF73A
:101070000DFD0346002B0CD03E4B1B6801333D4A4F
:1010800013603C4B1B68632B67DD3A4B01221A60EF
:1010900063E0FFF703FD0346002B0CD0354B1B68C4
:1010A0000133344A1360334B1B68632B55DD314BDE
:1010B00001221A6051E0FFF7F9FC0346002B4CD0E7
:1010C000294B1B68022B37D0022B41DC002B02D0AE
:1010D000012B25D03CE0274B1B68254A1360244B8D
:1010E0001B681846FFF7B0FA1DA3D3E90023FFF7EA
:1010F0002FF802460B461046194601F031FF024612
:101100000B4610461946FFF791FB0346184A5360F9
:10111000174B1A68164B5B68D31A154A936017E091
:10112000144B1B68124A5360114B5A68104B9B6852
:1011300013440F4A13600BE00E4B1B680C4A93607C
:101140000B4B5A680A4B9B681344094A136000BF53
:10115000064B01221A60FFF747FE80BDAFF3008007
:10116000666666666666E63F7C00002080000020BA
:1011700028000020DC00002080B500AF064B5B6932
:10118000012B07D1012000F025FB044B1B681846FA
:1011900000F0EDF800BF80BD280100207C00002099
:1011A00080B500AFFFF738FFFFF7E6FF104B1B6875
:1011B000022B14D0022B19DC002B02D0012B07D0FC
:1011C00014E00C4B1B6802211846FFF78DFB0DE065
:1011D000084B1B6803211846FFF786FB06E0054B0A
:1011E0001B6804211846FFF77FFB00BF00BF80BDCE
:1011F0007C000020DC00002080B500AF134B1B6892
:10120000022B1DD0022B1EDC002B02D0012B14D090
:1012100019E00E4B01221A604FF4FA71002000F021
:10122000A1FA6421032000F09DFA4FF47A710120A5
:1012300000F098FAFFF702FE06E0FFF789FD03E0F1
:10124000FFF7AEFF00E000BF00BF80BD80000020C0
:1012500080B582B000AF7860064A7B6832F8133000
:1012600001221946044800F04AFE00BF0837BD4677
:1012700080BD00BF340000200008014080B582B06E
:1012800000AF7860064A7B6832F8133000221946B6
:10129000044800F034FE00BF0837BD4680BD00BFE3
:1012A000340000200008014080B582B000AF7860B3
:1012B000054A7B6832F813301946044800F037FEBF
:1012C00000BF0837BD4680BD340000200008014043
:1012D00080B582B000AF78607B68022B1CD07B6841
:1012E000022B3FDC7B68002B03D07B68012B26D0D0
:1012F00038E00120FFF7ACFF0420FFF7A9FF03202F
:10130000FFF7BCFF0620FFF7B9FF0220FFF7B6FF8B
:101310000520FFF7B3FF26E00220FFF799FF052025
:10132000FFF796FF0120FFF7A9FF0420FFF7A6FFB4
:101330000320FFF7A3FF0620FFF7A0FF13E0032021
:10134000FFF786FF0620FFF783FF0120FFF796FFD8
:101350000420FFF793FF0220FFF790FF0520FFF71F
:101360008DFF00E000BF00BF0837BD4680BD80B5DF
:1013700082B000AF78607B68022B10D07B68022BB4
:101380001BDC7B68002B03D07B68012B0ED014E0A4
:101390000120FFF789FF0420FFF786FF0EE00220FF
:1013A000FFF782FF0520FFF77FFF07E00320FFF72D
:1013B0007BFF0620FFF778FF00E000BF00BF083783
:1013C000BD4680BD80B500AF00F098FA00F01CF873
:1013D00000F0A2F800F054F8094801F009FA094BAE
:1013E0001B68012B04D1074B00221A60FFF766FB34
:1013F000FFF702FF0121002000F0B2FDEFE700BF80
:10140000E00000208400002080B590B000AF07F11C
:10141000180328220021184601F09AFD3B1D0022E6
:101420001A605A609A60DA601A610223BB61012374
:10143000BB621023FB6200237B6307F1180318468D
:1014400000F0AAFD0346002B01D000F0F7F80F23AF
:101450007B600023BB600023FB6000233B61002313
:101460007B613B1D0021184601F016F80346002B56
:1014700001D000F0E3F800BF4037BD4680BD00005A
:1014800080B586B000AF07F1080300221A605A60E9
:101490009A60DA603B4600221A605A601D4B4FF09A
:1014A00080421A601B4B41F63F725A60194B002272
:1014B0009A60184B6322DA60164B00221A61154BB2
:1014C00000229A61134801F043F90346002B01D032
:1014D00000F0B4F84FF48053BB6007F108031946DD
:1014E0000C4801F0C1FA0346002B01D000F0A6F829
:1014F00000233B6000237B603B461946054801F012
:1015000099FC0346002B01D000F098F800BF183773
:10151000BD4680BDE000002080B588B000AF07F177
:10152000100300221A605A609A60DA60354B9B699A
:10153000344A43F010039361324B9B6903F010036C
:10154000FB60FB682F4B9B692E4A43F004039361B9
:101550002C4B9B6903F00403BB60BB68294B9B6960
:10156000284A43F008039361264B9B6903F0080364
:101570007B607B68002240F2FE31234800F0BFFC14
:10158000002243F6FF71214800F0B9FC4FF40053EC
:101590003B6100237B610123BB6107F11003194606
:1015A0001B4800F01BFB40F2FE333B6101237B61D3
:1015B0000023BB610223FB6107F1100319461248A7
:1015C00000F00CFB43F6FF733B6101237B610023BA
:1015D000BB610223FB6107F1100319460B4800F0C1
:1015E000FDFA4FF41C433B6100237B610123BB6187
:1015F00007F110031946044800F0F0FA00BF203745
:10160000BD4680BD0010024000080140000C0140B2
:101610000010014080B582B000AF78607B681B6825
:10162000B3F1804F04D100F0FBF8034B01221A60A4
:1016300000BF0837BD4680BD8400002080B400AFE5
:1016400072B600BFFEE7000080B485B000AF154B56
:101650009B69144A43F001039361124B9B6903F0A9
:101660000103BB60BB680F4BDB690E4A43F080533C
:10167000D3610C4BDB6903F080537B607B680A4BC2
:101680005B68FB60FB6823F0E063FB60FB6843F092
:101690000073FB60044AFB68536000BF1437BD460B
:1016A00080BC7047001002400000014080B584B04B
:1016B00000AF78607B681B68B3F1804F13D10C4B8F
:1016C000DB690B4A43F00103D361094BDB6903F08B
:1016D0000103FB60FB68002200211C2000F047FA98
:1016E0001C2000F060FA00BF1037BD4680BD00BF6F
:1016F0000010024080B400AFFEE780B400AFFEE708
:1017000080B400AFFEE780B400AFFEE780B400AF66
:10171000FEE780B400AF00BFBD4680BC704780B418
:1017200000AF00BFBD4680BC704780B400AF00BFB3
:10173000BD4680BC704780B500AF00F025F900BF02
:1017400080BD000080B500AF024801F09DF800BFE9
:1017500080BD00BFE000002080B400AF00BFBD46E8
:1017600080BC704780B483B000AF786039603B685C
:10177000164A82FB03125211DB17D11A14487A68F9
:1017800013465B0013449B00034419603B680F4AF7
:1017900082FB03125211DB17D11A0D487A681346E7
:1017A0005B0013449B0003440433196008497A68C2
:1017B00013465B0013449B000B44083300221A605D
:1017C00000BF0C37BD4680BC704700BF1F85EB5182
:1017D0002801002080B483B000AF78600F497A6898
:1017E00013465B0013449B000B4419680B487A684E
:1017F00013465B0013449B000344043319600749FC
:101800007A6813465B0013449B000B4408330022A4
:101810001A6000BF0C37BD4680BC7047280100200D
:1018200080B483B000AF00237B6035E01F497A6845
:1018300013465B0013449B000B4404331B68002BCE
:1018400027DD1A497A6813465B0013449B000B445A
:1018500004331B68591E15487A6813465B0013440D
:101860009B0003440433196010497A6813465B00F7
:1018700013449B000B4404331B68002B09DC0B4909
:101880007A6813465B0013449B000B440833012223
:101890001A607B6801337B607B68042BC6DD00BF68
:1018A00000BF0C37BD4680BC704700BF2801002038
:1018B000FFF752FF0B480C490C4A002302E0D458B2
:1018C000C4500433C4188C42F9D3094A094C00238C
:1018D00001E013600432A242FBD301F015FBFFF7D5
:1018E00071FD70470000002050000020EC3000081F
:1018F0005000002068010020FEE7000080B500AF26
:10190000084B1B68074A43F010031360032000F0E4
:1019100023F90F2000F008F8FFF796FE0023184681
:1019200080BD00BF0020024080B582B000AF78606B
:10193000124B1A68124B1B7819464FF47A73B3FB9B
:10194000F1F3B2FBF3F3184600F03BF90346002B2A
:1019500001D001230EE07B680F2B0AD800227968A2
:101960004FF0FF3000F003F9064A7B681360002354
:1019700000E0012318460837BD4680BD4400002022
:101980004C0000204800002080B400AF054B1B78BD
:101990001A46054B1B681344034A136000BFBD463B
:1019A00080BC70474C0000206401002080B400AF70
:1019B000024B1B681846BD4680BC7047640100207E
:1019C00080B485B000AF78607B6803F00703FB60EC
:1019D0000C4BDB68BB60BA684FF6FF031340BB607B
:1019E000FB681A02BB68134343F0BF6343F4003340
:1019F000BB60044ABB68D36000BF1437BD4680BCDF
:101A0000704700BF00ED00E080B400AF044BDB681E
:101A10001B0A03F007031846BD4680BC704700BF91
:101A200000ED00E080B483B000AF0346FB7197F98E
:101A30000730002B0BDBFB7903F01F02064997F9F7
:101A400007305B09012000FA02F241F8232000BFB1
:101A50000C37BD4680BC704700E100E080B483B025
:101A600000AF03463960FB7197F90730002B0ADBA2
:101A70003B68DAB20C4997F907301201D2B20B4435
:101A800083F800230AE03B68DAB20849FB7903F0E7
:101A90000F03043B1201D2B20B441A7600BF0C377D
:101AA000BD4680BC704700BF00E100E000ED00E0F3
:101AB00080B489B000AFF860B9607A60FB6803F069
:101AC0000703FB61FB69C3F10703042B28BF042351
:101AD000BB61FB690433062B02D9FB69033B00E0C1
:101AE00000237B614FF0FF32BB6902FA03F3DA4354
:101AF000BB681A407B699A404FF0FF317B6901FA5D
:101B000003F3D9437B680B40134318462437BD4683
:101B100080BC704780B582B000AF78607B68013BC5
:101B2000B3F1807F01D301230FE00A4A7B68013BB8
:101B300053600F214FF0FF30FFF790FF054B00225D
:101B40009A60044B07221A60002318460837BD46E6
:101B500080BD00BF10E000E080B582B000AF7860CB
:101B60007868FFF72DFF00BF0837BD4680BD80B500
:101B700086B000AF0346B9607A60FB7300237B61D7
:101B8000FFF742FF78617A68B9687869FFF790FFDC
:101B9000024697F90F3011461846FFF75FFF00BF66
:101BA0001837BD4680BD80B582B000AF0346FB71DB
:101BB00097F907301846FFF735FF00BF0837BD46D5
:101BC00080BD80B582B000AF78607868FFF7A2FF73
:101BD000034618460837BD4680BD000080B48BB070
:101BE00000AF7860396000237B6200233B6248E1EC
:101BF00001227B6A02FA03F3FB613B681B68FA6906
:101C00001340BB61BA69FB699A4240F037813B6877
:101C10005B68A34A93425ED0A14A934275D8A14A19
:101C2000934258D09F4A93426FD89F4A934252D0D2
:101C30009D4A934269D89D4A93424CD09B4A934215
:101C400063D89B4A934246D0994A93425DD8122B5F
:101C50002AD8122B59D801A252F823F0D71C000819
:101C6000B11C0008C31C0008051D00080B1D00085E
:101C70000B1D00080B1D00080B1D00080B1D0008A4
:101C80000B1D00080B1D00080B1D00080B1D000894
:101C90000B1D00080B1D00080B1D00080B1D000884
:101CA000B91C0008CD1C0008824A934213D02CE0D6
:101CB0003B68DB683B6229E03B68DB6804333B62DE
:101CC00024E03B68DB6808333B621FE03B68DB686D
:101CD0000C333B621AE03B689B68002B02D1042363
:101CE0003B6213E03B689B68012B05D108233B62F4
:101CF0007B68FA691A6109E008233B627B68FA692C
:101D00005A6103E000233B6200E000BFBB69FF2B88
:101D100001D87B6801E07B6804337B61BB69FF2BE2
:101D200002D87B6A9B0002E07B6A083B9B003B6118
:101D30007B691A680F213B6901FA03F3DB431A4000
:101D4000396A3B6901FA03F31A437B691A603B68FD
:101D50005B6803F08053002B00F09080564B9B692A
:101D6000554A43F001039361534B9B6903F0010310
:101D7000BB60BB68514A7B6A9B08023352F8233030
:101D8000FB607B6A03F003039B000F2202FA03F35C
:101D9000DB43FA681340FB607B68494A93420DD0ED
:101DA0007B68484A934207D07B68474A934201D1F7
:101DB000022304E0032302E0012300E000237A6A07
:101DC00002F0030292009340FA681343FB603B4920
:101DD0007B6A9B080233FA6841F823203B685B6802
:101DE00003F48013002B06D0384B9A683749BB693F
:101DF00013438B6006E0354B9A68BB69DB4333497C
:101E000013408B603B685B6803F40013002B06D023
:101E10002E4BDA682D49BB691343CB6006E02B4B90
:101E2000DA68BB69DB4329491340CB603B685B68D8
:101E300003F40033002B06D0244B5A682349BB69B6
:101E400013434B6006E0214B5A68BB69DB431F49D3
:101E500013404B603B685B6803F48033002B06D073
:101E60001A4B1A681949BB6913430B6006E0174BFC
:101E70001A68BB69DB43154913400B607B6A013369
:101E80007B623B681A687B6A22FA03F3002B7FF4BB
:101E9000AFAE00BF00BF2C37BD4680BC704700BF4F
:101EA000000032100000311000002210000021104C
:101EB000000012100000111000100240000001404C
:101EC00000080140000C01400010014000040140E6
:101ED00080B485B000AF78600B467B807B689A68E1
:101EE0007B881340002B02D00123FB7301E0002309
:101EF000FB73FB7B18461437BD4680BC704780B42B
:101F000083B000AF78600B467B8013467B707B7894
:101F1000002B03D07A887B681A6103E07B881A045F
:101F20007B681A6100BF0C37BD4680BC704780B427
:101F300085B000AF78600B467B807B68DB68FB6018
:101F40007A88FB6813401A04FB68D9437B880B40EE
:101F50001A437B681A6100BF1437BD4680BC7047C6
:101F600080B483B000AF78600B46FB70094B1B69EF
:101F7000084A23F004031361FB78012B01D130BF21
:101F800002E040BF20BF20BF00BF0C37BD4680BC71
:101F9000704700BF00ED00E080B586B000AF78600C
:101FA0007B68002B01D101236CE27B681B6803F086
:101FB0000103002B00F08780924B5B6803F00C0359
:101FC000042B0CD08F4B5B6803F00C03082B12D151
:101FD0008C4B5B6803F48033B3F5803F0BD1894BA6
:101FE0001B6803F40033002B6CD07B685B68002B0C
:101FF00068D1012346E27B685B68B3F5803F06D178
:10200000804B1B687F4A43F4803313602EE07B686B
:102010005B68002B0CD17B4B1B687A4A23F480331E
:102020001360784B1B68774A23F4802313601DE00C
:102030007B685B68B3F5A02F0CD1724B1B68714AAB
:1020400043F4802313606F4B1B686E4A43F4803364
:1020500013600BE06B4B1B686A4A23F480331360F8
:10206000684B1B68674A23F4802313607B685B68B6
:10207000002B13D0FFF79AFC386108E0FFF796FCBD
:1020800002463B69D31A642B01D90323FAE15D4B65
:102090001B6803F40033002BF0D014E0FFF786FC3C
:1020A000386108E0FFF782FC02463B69D31A642BD3
:1020B00001D90323E6E1534B1B6803F40033002BE3
:1020C000F0D100E000BF7B681B6803F00203002B27
:1020D00063D04C4B5B6803F00C03002B0BD0494BD7
:1020E0005B6803F00C03082B1CD1464B5B6803F4C0
:1020F0008033002B16D1434B1B6803F00203002BE7
:1021000005D07B681B69012B01D00123BAE13D4B4F
:102110001B6823F0F8027B685B69DB0039491343D5
:102120000B603AE07B681B69002B20D0364B012204
:102130001A60FFF73BFC386108E0FFF737FC024606
:102140003B69D31A022B01D903239BE12D4B1B685A
:1021500003F00203002BF0D02A4B1B6823F0F80297
:102160007B685B69DB00274913430B6015E0264B56
:1021700000221A60FFF71AFC386108E0FFF716FC2E
:1021800002463B69D31A022B01D903237AE11D4B86
:102190001B6803F00203002BF0D17B681B6803F07F
:1021A0000803002B3AD07B689B69002B19D0174B92
:1021B00001221A60FFF7FAFB386108E0FFF7F6FB2F
:1021C00002463B69D31A022B01D903235AE10D4B76
:1021D0005B6A03F00203002BF0D0012000F09AFAB2
:1021E0001CE00A4B00221A60FFF7E0FB38610FE0A9
:1021F000FFF7DCFB02463B69D31A022B08D9032305
:1022000040E100BF00100240000042428004424210
:102210009E4B5B6A03F00203002BE9D17B681B68CD
:1022200003F00403002B00F0A6800023FB75974BFE
:10223000DB6903F08053002B0DD1944BDB69934A8B
:1022400043F08053D361914BDB6903F08053BB6053
:10225000BB680123FB758E4B1B6803F48073002B56
:1022600018D18B4B1B688A4A43F480731360FFF7C5
:102270009DFB386108E0FFF799FB02463B69D31AE2
:10228000642B01D90323FDE0814B1B6803F48073A9
:10229000002BF0D07B68DB68012B06D17B4B1B6ADF
:1022A0007A4A43F0010313622DE07B68DB68002B60
:1022B0000CD1764B1B6A754A23F001031362734BF2
:1022C0001B6A724A23F0040313621CE07B68DB681C
:1022D000052B0CD16D4B1B6A6C4A43F0040313624F
:1022E0006A4B1B6A694A43F0010313620BE0674BB8
:1022F0001B6A664A23F001031362644B1B6A634A3C
:1023000023F0040313627B68DB68002B15D0FFF712
:102310004DFB38610AE0FFF749FB02463B69D31ADF
:1023200041F28832934201D90323ABE0574B1B6A39
:1023300003F00203002BEED014E0FFF737FB386107
:102340000AE0FFF733FB02463B69D31A41F28832B9
:10235000934201D9032395E04C4B1B6A03F002031F
:10236000002BEED1FB7D012B05D1484BDB69474AA1
:1023700023F08053D3617B68DB69002B00F0818000
:10238000424B5B6803F00C03082B61D07B68DB6970
:10239000022B46D13F4B00221A60FFF707FB386142
:1023A00008E0FFF703FB02463B69D31A022B01D971
:1023B000032367E0354B1B6803F00073002BF0D15B
:1023C0007B681B6AB3F5803F08D1304B5B6823F410
:1023D00000327B689B682D4913434B602B4B5B6835
:1023E00023F474127B68196A7B685B6A0B43274984
:1023F00013434B60274B01221A60FFF7D7FA38616D
:1024000008E0FFF7D3FA02463B69D31A022B01D941
:10241000032337E01D4B1B6803F00073002BF0D043
:102420002FE01C4B00221A60FFF7C0FA386108E069
:10243000FFF7BCFA02463B69D31A022B01D90323EA
:1024400020E0124B1B6803F00073002BF0D118E062
:102450007B68DB69012B01D1012313E00B4B5B6827
:10246000FB60FB6803F480327B681B6A9A4206D1EA
:10247000FB6803F470127B685B6A9A4201D0012307
:1024800000E0002318461837BD4680BD001002400A
:10249000007000406000424280B584B000AF7860B8
:1024A00039607B68002B01D10123D0E06A4B1B68A7
:1024B00003F007033A689A4210D9674B1B6823F070
:1024C000070265493B6813430B60634B1B6803F0CD
:1024D00007033A689A4201D00123B8E07B681B6881
:1024E00003F00203002B20D07B681B6803F0040379
:1024F000002B05D0594B5B68584A43F4E0635360A6
:102500007B681B6803F00803002B05D0534B5B6806
:10251000524A43F460535360504B5B6823F0F0021F
:102520007B689B684D4913434B607B681B6803F0D5
:102530000103002B40D07B685B68012B07D1474B20
:102540001B6803F40033002B15D101237FE07B6867
:102550005B68022B07D1414B1B6803F00073002B13
:1025600009D1012373E03D4B1B6803F00203002BEC
:1025700001D101236BE0394B5B6823F003027B68D8
:102580005B68364913434B60FFF710FAF8600AE0C6
:10259000FFF70CFA0246FB68D31A41F288329342E5
:1025A00001D9032353E02D4B5B6803F00C027B68D9
:1025B0005B689B009A42EBD1274B1B6803F0070333
:1025C0003A689A4210D2244B1B6823F00702224932
:1025D0003B6813430B60204B1B6803F007033A680A
:1025E0009A4201D0012332E07B681B6803F00403A8
:1025F000002B08D0194B5B6823F4E0627B68DB6832
:10260000164913434B607B681B6803F00803002BDB
:1026100009D0124B5B6823F460527B681B69DB00B6
:102620000E4913434B6000F021F802460B4B5B68E8
:102630001B0903F00F030A49CB5C22FA03F3094A92
:102640001360094B1B681846FFF76EF90023184604
:102650001037BD4680BD00BF002002400010024080
:10266000C0300008440000204800002080B487B03B
:1026700000AF0023FB600023BB6000237B610023CD
:102680007B6000233B611E4B5B68FB60FB6803F0D3
:102690000C03042B02D0082B03D027E0194B3B611D
:1026A00027E0FB689B0C03F00F03174AD35C7B60A9
:1026B000FB6803F48033002B10D0114B5B685B0C7C
:1026C00003F00103114AD35CBB607B680D4A02FB37
:1026D00003F2BB68B2FBF3F37B6104E07B680C4A56
:1026E00002FB03F37B617B693B6102E0054B3B61CD
:1026F00000BF3B6918461C37BD4680BC704700BF11
:102700000010024000127A00D0300008E0300008CB
:1027100000093D0080B485B000AF78600A4B1B68AB
:102720000A4AA2FB03235B0A7A6802FB03F3FB60FD
:1027300000BFFB685A1EFA60002BF9D100BF00BF32
:102740001437BD4680BC704744000020D34D621052
:1027500080B582B000AF78607B68002B01D1012387
:1027600041E07B6893F83D30DBB2002B06D17B68FB
:10277000002283F83C207868FEF798FF7B680222ED
:1027800083F83D207B681A687B680433194610463D
:1027900000F056FA7B68012283F846207B6801220C
:1027A00083F83E207B68012283F83F207B6801226A
:1027B00083F840207B68012283F841207B68012256
:1027C00083F842207B68012283F843207B68012242
:1027D00083F844207B68012283F845207B6801222E
:1027E00083F83D20002318460837BD4680BD000011
:1027F00080B485B000AF78607B6893F83D30DBB281
:10280000012B01D0012335E07B68022283F83D20B3
:102810007B681B68DA687B681B6842F00102DA603B
:102820007B681B68164A934209D07B681B68B3F12A
:10283000804F04D07B681B68124A934211D17B6899
:102840001B689B6803F00703FB60FB68062B10D036
:102850007B681B681A687B681B6842F001021A607B
:1028600007E07B681B681A687B681B6842F00102FE
:102870001A60002318461437BD4680BC704700BF5D
:10288000002C01400004004080B584B000AF7860A7
:102890007B681B68DB68FB607B681B681B69BB602F
:1028A000BB6803F00203002B20D0FB6803F0020397
:1028B000002B1BD07B681B686FF002021A617B68DB
:1028C00001221A777B681B689B6903F00303002BC6
:1028D00003D0786800F098F905E0786800F08BF98B
:1028E000786800F09AF97B6800221A77BB6803F0D9
:1028F0000403002B20D0FB6803F00403002B1BD043
:102900007B681B686FF004021A617B6802221A77E9
:102910007B681B689B6903F44073002B03D07868C5
:1029200000F072F905E0786800F065F9786800F069
:1029300074F97B6800221A77BB6803F00803002B48
:1029400020D0FB6803F00803002B1BD07B681B68BA
:102950006FF008021A617B6804221A777B681B6893
:10296000DB6903F00303002B03D0786800F04CF917
:1029700005E0786800F03FF9786800F04EF97B6870
:1029800000221A77BB6803F01003002B20D0FB68ED
:1029900003F01003002B1BD07B681B686FF0100244
:1029A0001A617B6808221A777B681B68DB6903F46D
:1029B0004073002B03D0786800F026F905E07868B2
:1029C00000F019F9786800F028F97B6800221A777E
:1029D000BB6803F00103002B0CD0FB6803F001037C
:1029E000002B07D07B681B686FF001021A617868C2
:1029F000FEF710FEBB6803F08003002B0CD0FB68D1
:102A000003F08003002B07D07B681B686FF0800207
:102A10001A61786800F06FFABB6803F04003002B7E
:102A20000CD0FB6803F04003002B07D07B681B68C9
:102A30006FF040021A61786800F0F8F8BB6803F0A4
:102A40002003002B0CD0FB6803F02003002B07D0E1
:102A50007B681B686FF020021A61786800F042FA08
:102A600000BF1037BD4680BD80B584B000AF786030
:102A700039600023FB737B6893F83C30012B01D154
:102A80000223B4E07B68012283F83C207B680222A9
:102A900083F83D207B681B689B68BB60BB6823F0A4
:102AA0007703BB60BB6823F47F43BB607B681B6814
:102AB000BA689A603B681B68B3F5005F3ED0B3F517
:102AC000005F00F28780B3F5805F00F08680B3F589
:102AD000805F7FD8702B1AD0702B7BD8602B50D0A2
:102AE000602B77D8502B3CD0502B73D8402B58D02C
:102AF000402B6FD8302B64D0302B6BD8202B60D07C
:102B0000202B67D8002B5CD0102B5AD062E07B685A
:102B100018683B6899683B685A683B68DB6800F056
:102B20006AF97B681B689B68BB60BB6843F07703EE
:102B3000BB607B681B68BA689A604FE07B68186866
:102B40003B6899683B685A683B68DB6800F053F95A
:102B50007B681B689A687B681B6842F480429A60B5
:102B60003CE07B6818683B6859683B68DB681A463C
:102B700000F0CAF87B681B685021184600F021F964
:102B80002CE07B6818683B6859683B68DB681A462C
:102B900000F0E8F87B681B686021184600F011F926
:102BA0001CE07B6818683B6859683B68DB681A461C
:102BB00000F0AAF87B681B684021184600F001F974
:102BC0000CE07B681A683B681B681946104600F0E9
:102BD000F8F803E00123FB7300E000BF7B680122EB
:102BE00083F83D207B68002283F83C20FB7B18465D
:102BF0001037BD4680BD80B483B000AF786000BFA1
:102C00000C37BD4680BC704780B483B000AF78609D
:102C100000BF0C37BD4680BC704780B483B000AFA6
:102C2000786000BF0C37BD4680BC704780B483B06D
:102C300000AF786000BF0C37BD4680BC7047000015
:102C400080B485B000AF786039607B681B68FB603A
:102C50007B682B4A934207D07B68B3F1804F03D047
:102C60007B68284A934208D1FB6823F07003FB601D
:102C70003B685B68FA681343FB607B68204A9342B9
:102C800007D07B68B3F1804F03D07B681D4A934225
:102C900008D1FB6823F44073FB603B68DB68FA688B
:102CA0001343FB60FB6823F080023B685B691343BE
:102CB000FB607B68FA681A603B689A687B68DA6236
:102CC0003B681A687B689A627B680D4A934203D11D
:102CD0003B681A697B681A637B6801225A617B68CA
:102CE0001B6903F00103002B05D07B681B6923F0EF
:102CF00001027B681A6100BF1437BD4680BC704773
:102D0000002C01400004004080B487B000AFF860A0
:102D1000B9607A60FB681B6A7B61FB681B6A23F001
:102D20000102FB681A62FB689B693B613B6923F007
:102D3000F0033B617B681B013A6913433B617B698C
:102D400023F00A037B617A69BB6813437B61FB68EC
:102D50003A699A61FB687A691A6200BF1C37BD46FE
:102D600080BC704780B487B000AFF860B9607A600B
:102D7000FB681B6A7B61FB681B6A23F01002FB681F
:102D80001A62FB689B693B613B6923F470433B61BA
:102D90007B681B033A6913433B617B6923F0A00303
:102DA0007B61BB681B017A6913437B61FB683A69ED
:102DB0009A61FB687A691A6200BF1C37BD4680BC05
:102DC000704780B485B000AF786039607B689B68DD
:102DD000FB60FB6823F07003FB603A68FB681343F9
:102DE00043F00703FB607B68FA689A6000BF143702
:102DF000BD4680BC704780B487B000AFF860B96052
:102E00007A603B60FB689B687B617B6923F47F434E
:102E10007B613B681A027B681A43BB6813437A697B
:102E200013437B61FB687A699A6000BF1C37BD461B
:102E300080BC704780B485B000AF786039607B6833
:102E400093F83C30012B01D1022341E07B68012241
:102E500083F83C207B68022283F83D207B681B6856
:102E60005B68FB607B681B689B68BB60FB6823F04A
:102E70007003FB603B681B68FA681343FB607B6868
:102E80001B68FA685A607B681B68144A934209D031
:102E90007B681B68B3F1804F04D07B681B68104AC5
:102EA00093420CD1BB6823F08003BB603B685B6836
:102EB000BA681343BB607B681B68BA689A607B681A
:102EC000012283F83D207B68002283F83C20002308
:102ED00018461437BD4680BC704700BF002C014027
:102EE0000004004080B483B000AF786000BF0C37AE
:102EF000BD4680BC704780B483B000AF786000BF2F
:102F00000C37BD4680BC704770B500260C4D0D4C8B
:102F1000641BA410A64209D100F0A2F800260A4DB5
:102F20000A4C641BA410A64205D170BD55F8043BA1
:102F300098470136EEE755F8043B98470136F2E72B
:102F4000E4300008E4300008E4300008E83000080D
:102F500003460244934200D1704703F8011BF9E78E
:102F60002DE9F843C1F30A58A8F2FF36132E0246A2
:102F70000B4607460C46054631DC002E12DA34A318
:102F8000D3E90023FDF714FA00220023FDF744FCE7
:102F900028B1002C56DB3C4358D000252E4C23464C
:102FA0002F4625E02D4A42FA06F801EA08020243BC
:102FB0001ED027A3D3E90023FDF7FAF9002200234E
:102FC000FDF72AFC0028EAD0002CC2BF4FF4801382
:102FD00043FA06F6A419002524EA0804DFE7332E95
:102FE0000ADDB6F5806F03D1FDF7E2F907460B461F
:102FF00038461946BDE8F8834FF0FF32A8F213486F
:1030000022FA08F818EA000FF2D011A3D3E900233E
:10301000FDF7CEF900220023FDF7FEFB0028BED00D
:10302000002C02DD142E03D1013425EA0805B6E791
:103030000123C6F1340603FA06F63544BD4238BF13
:10304000E418F2E700254FF00044A8E72546A6E77C
:103050009C7500883CE4377E0000F03FFFFF0F00C6
:10306000F8B500BFF8BC08BC9E467047F8B500BF75
:08307000F8BC08BC9E46704745
:103078000000000000000101000001010101000042
:103088000100000100000000000101000100000132
:103098000100000001000001000000010000000024
:1030A8000000000001010101000000000000000014
:1030B8000000000100000000000000000000000007
:1030C80001020304060708090203040506070809A4
:0C30D8000A0B0C0D0E0F1010010200007E
:0430E40035010008AA
:0430E80011010008CA
:1030EC000100020004000800100020004000000055
:1030FC008000000100020004000800100020000005
:10310C0000040008001000000A0000000700000086
:10311C0003000000200002000400080040008000B2
:10312C000001000000127A001000000001000000F5
:04000005080018B126
:00000001FF
