:020000040800F2
:1000000000280020D1110008151000081B1000085E
:1000100021100008271000082D1000080000000023
:100020000000000000000000000000003310000885
:100030003F100008000000004B1000085710000897
:1000400019120008191200081912000819120008E4
:1000500019120008191200081912000819120008D4
:1000600019120008191200081912000819120008C4
:1000700019120008191200081912000819120008B4
:1000800019120008191200081912000819120008A4
:100090001912000819120008191200081912000894
:1000A0001912000819120008191200081912000884
:1000B000651000081912000800000000191200085D
:1000C00019120008000000000000000019120008CA
:1000D00000000000191200081912000800000000BA
:1000E0001912000819120008191200080000000077
:1000F0000000000000000000000000000000000000
:0C01000000000000000000005FF808F1A3
:10010C0010B5054C237833B9044B13B10448AFF345
:10011C0000800123237010BD50000020000000005F
:10012C004828000808B5034B1BB103490348AFF33B
:10013C00008008BD00000000540000204828000882
:10014C0080B584B000AF786039607B68002B02DB2F
:10015C007B68092B01DD00237B600023FB6019E029
:10016C00FB685B003A68134419880E487A6813469A
:10017C00DB009B1AC218FB6813441B78002B14BFBE
:10018C0001230023DBB21A46074801F042FBFB684F
:10019C000133FB60FB68062BE2DD00BF00BF1037AC
:1001AC00BD4680BD60280008000C014080B586B0BB
:1001BC0000AF78603960354BDB6A012B61D17B680D
:1001CC00334A82FB03129210DB17D31A7B617A68D5
:1001DC002F4B83FB02139910D317C91A0B469B00A4
:1001EC000B445B00D31A3B613B68294A82FB031228
:1001FC009210DB17D31AFB603A68254B83FB021372
:10020C009910D317C91A0B469B000B445B00D31AE9
:10021C00BB60204B1B68012B13D1002210211E4800
:10022C0001F0F7FA00224FF400711B4801F0F1FACB
:10023C001A497869FFF784FF1949F868FFF780FFBE
:10024C0016E0144B1B68002B12D10122102112480E
:10025C0001F0DFFA01224FF400710F4801F0D9FAD6
:10026C000E493869FFF76CFF0D49B868FFF768FF56
:10027C00084B1B68C3F10103064A1360032000F00E
:10028C0033FF00BF1837BD4680BD00BF40010020C2
:10029C00676666666C0000200008014000000020C4
:1002AC001000002080B483B000AF78607B68042B12
:1002BC0002DC7B68002B02DA4FF0FF3317E00E49AB
:1002CC007A681346DB009B1A9B000B4414331B68A3
:1002DC00012B0BD108497A681346DB009B1A9B0053
:1002EC000B44143300221A60012300E0002318464B
:1002FC000C37BD4680BC70478400002080B500AF31
:10030C000020FFF7CFFF0346184680BD80B500AF35
:10031C000120FFF7C7FF0346184680BD80B500AF2C
:10032C000220FFF7BFFF0346184680BD80B500AF23
:10033C000320FFF7B7FF0346184680BD80B582B097
:10034C0000AF00237B60F8E080497A681346DB003D
:10035C009B1A9B000B44043319687C487A6813463B
:10036C00DB009B1A9B0003440833196077497A68B9
:10037C001346DB009B1A9B000B44196873487A6880
:10038C001346DB009B1A9B00034404331960704A2C
:10039C007B6832F8133019466E4801F023FA034695
:1003AC0018466A497A681346DB009B1A9B000B447B
:1003BC00186066497A681346DB009B1A9B000B4455
:1003CC00196862487A681346DB009B1A9B00034449
:1003DC0004331B68994240F0AD805C497A6813463F
:1003EC00DB009B1A9B000B440433196857487A684E
:1003FC001346DB009B1A9B00034408331B6899428D
:10040C0040F0988051497A681346DB009B1A9B0098
:10041C000B44083319684D487A681346DB009B1A65
:10042C009B0003440C331B68994231D047497A68CE
:10043C001346DB009B1A9B000B4408331968434896
:10044C007A681346DB009B1A9B0003440C3319603B
:10045C003E497A681346DB009B1A9B000B440C3315
:10046C001B68002B66D139497A681346DB009B1A4E
:10047C009B000B44103332221A6034497A681346BD
:10048C00DB009B1A9B000B44143301221A6051E0D1
:10049C002E497A681346DB009B1A9B000B440C33E5
:1004AC001B68002B3CD129497A681346DB009B1A48
:1004BC009B000B4410331B68591E24487A68134662
:1004CC00DB009B1A9B000344103319601F497A68A8
:1004DC001346DB009B1A9B000B4410331B68002B4C
:1004EC0028DC1A497A681346DB009B1A9B000B44E4
:1004FC00103332221A6015497A681346DB009B1AB6
:10050C009B000B44143301221A6010497A6813467D
:10051C00DB009B1A9B000B44183301221A6009E084
:10052C000A497A681346DB009B1A9B000B4418336C
:10053C0000221A607B6801337B607B68032B7FF79A
:10054C0003AF00BF00BF0837BD4680BD840000204C
:10055C00200000200008014080B500AFFFF7CEFE60
:10056C000346002B05D0154B02221A6000F070F9DF
:10057C0022E0134B9B68002B05D0002000F034FBCD
:10058C00002000F0B1FD0E4B5B69002B14D00D4B1D
:10059C001B68002B04DD0B4B1B68013B094A1360E5
:1005AC00094B1B68002B04DD074B1B68013B064AFB
:1005BC001360012000F098FD80BD00BF800000207A
:1005CC0040010020740000207800002080B500AFAE
:1005DC00FFF7C2FF1F4B1B68032B27D801A252F851
:1005EC0023F000BF010600080F0600081D060008D6
:1005FC002B060008184B1B6A002B1AD000F092F83F
:10060C0017E0154B1B6A002B15D000F0BBF812E05D
:10061C00114B1B6A002B10D000F0EAF80DE00E4BCA
:10062C001B6A002B0BD000F047F808E000F044F8F0
:10063C0006E000BF04E000BF02E000BF00E000BF26
:10064C00064B1B68064A126811461846FFF7AEFDAA
:10065C0000BF80BD7000002040010020740000200D
:10066C007800002080B500AF4FF47A71012000F0C3
:10067C0003FD104B1B68032B16D801A252F823F074
:10068C009D060008A3060008A9060008AF0600088E
:10069C0000F012F80BE000F045F808E000F072F8FA
:1006AC0005E000F0A5F802E000F006F800BF00BF7E
:1006BC0080BD00BF7000002080B500AF012000F0AD
:1006CC0067FA062000F064FA022000F077FA0320A3
:1006DC0000F074FA042000F071FA052000F06EFAB4
:1006EC000C4B00221A600C4B5B684FF47A7202FBC5
:1006FC0003F31946022000F0BFFC074B1B68074AA6
:10070C001360054B5B68064A1360012000F0ECFC9B
:10071C0000BF80BD70000020280000207400002065
:10072C007800002080B500AF012000F031FA0520E0
:10073C0000F02EFA022000F041FA032000F03EFAFD
:10074C00042000F03BFA062000F038FA0A4B012294
:10075C001A600A4B9B684FF47A7202FB03F319463A
:10076C00022000F089FC054B9B68054A13600120B0
:10077C0000F0BAFC00BF80BD7000002028000020F3
:10078C007800002080B500AF032000F001FA0420AF
:10079C0000F0FEF9022000F011FA012000F00EFA30
:1007AC00062000F00BFA052000F008FA0C4B022290
:1007BC001A600C4B5B684FF47A7202FB03F3194618
:1007CC00022000F059FC074B5B68074A1360054B8D
:1007DC001B68064A1360012000F086FC00BF80BD38
:1007EC0070000020280000207400002078000020F9
:1007FC0080B500AF022000F0CBF9042000F0C8F95E
:10080C00012000F0DBF9032000F0D8F9062000F0FD
:10081C00D5F9052000F0D2F90A4B03221A600A4BD5
:10082C009B684FF47A7202FB03F31946022000F026
:10083C0023FC054B9B68054A1360012000F054FC17
:10084C0000BF80BD70000020280000207400002034
:10085C0080B500AF0B4B00221A600B4B1B680B4A88
:10086C001360084B1B68184600F0D2F944F620615F
:10087C00022000F001FC4FF4FA71012000F0FCFBA7
:10088C0000BF80BD7C00002028000020F400002068
:10089C0080B500AF4FF47A71012000F0EDFB0E4BE8
:1008AC001B68012B02D10C4B02221A600A4B1B68ED
:1008BC00032B02D1084B00221A60074B1B68002B3C
:1008CC0004D0022B05D1FFF75DFF03E0FFF7F4FE28
:1008DC0000E000BF00BF80BD7000002080B500AFFD
:1008EC00FFF724FD0346002B05D0044B03221A60AE
:1008FC00FFF7CEFF00E000BF80BD00BF80000020EE
:10090C0080B500AFFFF7FAFC0346002B20D04FF464
:10091C00FA71012000F0B0FB0E4B1B6801330D4A3D
:10092C0013600C4B1B68022B05DD0B4B01221A606C
:10093C00FFF798FE0DE0074B1B68084A52F823306E
:10094C00074A1360034B1B68184600F061F900E07E
:10095C0000BF80BD7C00002080000020280000200B
:10096C00F400002080B500AFFFF7D0FC0346002B4D
:10097C000CD0074B1B680133054A1360044B1B68F2
:10098C00632B04DD024B01221A6000E000BF80BD26
:10099C00F400002080B500AFFFF7C0FC0346002B2D
:1009AC0034D01B4B1B68022B1ED0022B28DC002BD7
:1009BC0002D0012B0CD023E0164B1B68164A136097
:1009CC00154B1A68144B9B68D31A134A536017E0E3
:1009DC00104B1B68104A53600F4B5A680E4B9B68A8
:1009EC0013440D4A13600BE00A4B1B680A4A9360D0
:1009FC00094B5A68084B9B681344074A136000BFA5
:100A0C00064B01221A60FFF72DFE00E000BF80BDEF
:100A1C007C000020F4000020280000208000002032
:100A2C0080B500AF064B5B69012B07D1012000F0AC
:100A3C005BFB044B1B68184600F039F900BF80BD06
:100A4C00400100207C00002080B500AF1C4B1B68CF
:100A5C00022B24D0022B31DC002B02D0012B0FD027
:100A6C002CE0184B1B6802211846FFF79FFBFFF781
:100A7C0047FFFFF777FFFFF78DFFFFF7D1FF1DE073
:100A8C00104B1B6803211846FFF790FBFFF738FF4C
:100A9C00FFF768FFFFF77EFFFFF7C2FF0EE0094B81
:100AAC001B6804211846FFF781FBFFF729FFFFF7AE
:100ABC0059FFFFF76FFFFFF7B3FF00BF00BF80BD0B
:100ACC007C000020F400002080B500AFFFF72EFC66
:100ADC000346002B05D0124B01221A60FFF7C2FD12
:100AEC001CE0FFF71BFC0346002B13D00D4B1B68BF
:100AFC00002B07D0022B0BD10A4B00221A60FFF7F8
:100B0C00DBFD06E0074B02221A60FFF73BFE00E01C
:100B1C0000BF03E000210020FFF748FB80BD00BFB1
:100B2C00800000207000002080B500AF174B1B68C0
:100B3C00032B28D801A252F823F000BF590B000850
:100B4C00810B0008870B00088D0B00080F4B01224E
:100B5C001A604FF4FA71002000F08EFA6421032021
:100B6C0000F08AFA4FF47A71012000F085FAFFF751
:100B7C00A3FD09E0FFF72AFD06E0FFF765FF03E0A0
:100B8C00FFF7A2FF00E000BF00BF80BD8000002087
:100B9C0080B582B000AF7860064A7B6832F81330BB
:100BAC0001221946044800F034FE00BF0837BD4648
:100BBC0080BD00BF340000200008014080B582B029
:100BCC0000AF7860064A7B6832F813300022194671
:100BDC00044800F01EFE00BF0837BD4680BD00BFB4
:100BEC00340000200008014080B582B000AF78606E
:100BFC00054A7B6832F813301946044800F021FE90
:100C0C0000BF0837BD4680BD3400002000080140FD
:100C1C0080B582B000AF78607B68022B1CD07B68FB
:100C2C00022B3FDC7B68002B03D07B68012B26D08A
:100C3C0038E00120FFF7ACFF0420FFF7A9FF0320E9
:100C4C00FFF7BCFF0620FFF7B9FF0220FFF7B6FF46
:100C5C000520FFF7B3FF26E00220FFF799FF0520E0
:100C6C00FFF796FF0120FFF7A9FF0420FFF7A6FF6F
:100C7C000320FFF7A3FF0620FFF7A0FF13E00320DC
:100C8C00FFF786FF0620FFF783FF0120FFF796FF93
:100C9C000420FFF793FF0220FFF790FF0520FFF7DA
:100CAC008DFF00E000BF00BF0837BD4680BD80B59A
:100CBC0082B000AF78607B68022B10D07B68022B6F
:100CCC001BDC7B68002B03D07B68012B0ED014E05F
:100CDC000120FFF789FF0420FFF786FF0EE00220BA
:100CEC00FFF782FF0520FFF77FFF07E00320FFF7E8
:100CFC007BFF0620FFF778FF00E000BF00BF08373E
:100D0C00BD4680BD80B500AF00F082FA00F00AF855
:100D1C0000F090F800F042F8014801F0D7F9FEE736
:100D2C00F800002080B590B000AF07F1180328221E
:100D3C000021184601F07AFD3B1D00221A605A6012
:100D4C009A60DA601A610223BB610123BB62102333
:100D5C00FB6200237B6307F11803184600F08AFD41
:100D6C000346002B01D000F0F3F80F237B60002327
:100D7C00BB600023FB6000233B6100237B613B1DB8
:100D8C000021184600F0F6FF0346002B01D000F0BE
:100D9C00DFF800BF4037BD4680BD000080B586B08F
:100DAC0000AF07F1080300221A605A609A60DA60FB
:100DBC003B4600221A605A601D4B4FF080421A606D
:100DCC001B4B41F63F725A60194B00229A60184B2C
:100DDC006322DA60164B00221A61154B00229A61CD
:100DEC00134801F023F90346002B01D000F0B0F8B2
:100DFC004FF48053BB6007F1080319460C4801F00F
:100E0C00A1FA0346002B01D000F0A2F800233B60AE
:100E1C0000237B603B461946054801F079FC0346EC
:100E2C00002B01D000F094F800BF1837BD4680BDF0
:100E3C00F800002080B588B000AF07F11003002245
:100E4C001A605A609A60DA60354B9B69344A43F0F9
:100E5C0010039361324B9B6903F01003FB60FB683A
:100E6C002F4B9B692E4A43F0040393612C4B9B69D7
:100E7C0003F00403BB60BB68294B9B69284A43F011
:100E8C0008039361264B9B6903F008037B607B6826
:100E9C00002240F2FE31234800F0BBFC002243F656
:100EAC00FF71214800F0B5FC4FF400533B61002367
:100EBC007B610123BB6107F1100319461B4800F04D
:100ECC0017FB40F2FE333B6101237B610023BB61C6
:100EDC000223FB6107F110031946124800F008FBCE
:100EEC0043F6FF733B6101237B610023BB6102234B
:100EFC00FB6107F1100319460B4800F0F9FA4FF4A7
:100F0C001C433B6100237B610123BB6107F1100390
:100F1C001946044800F0ECFA00BF2037BD4680BDEE
:100F2C000010024000080140000C0140001001407C
:100F3C0080B582B000AF7860FFF700FA00F0FAF8E5
:100F4C00FFF7F2FDFFF7CAFC00BF0837BD4680BDB6
:100F5C0080B400AF72B600BFFEE7000080B485B06D
:100F6C0000AF154B9B69144A43F001039361124B7C
:100F7C009B6903F00103BB60BB680F4BDB690E4A36
:100F8C0043F08053D3610C4BDB6903F080537B60DF
:100F9C007B680A4B5B68FB60FB6823F0E063FB60DB
:100FAC00FB6843F00073FB60044AFB68536000BFAE
:100FBC001437BD4680BC7047001002400000014051
:100FCC0080B584B000AF78607B681B68B3F1804F4C
:100FDC0013D10C4BDB690B4A43F00103D361094B72
:100FEC00DB6903F00103FB60FB68002200211C207D
:100FFC0000F047FA1C2000F060FA00BF1037BD4625
:10100C0080BD00BF0010024080B400AFFEE780B48A
:10101C0000AFFEE780B400AFFEE780B400AFFEE7A0
:10102C0080B400AFFEE780B400AF00BFBD4680BC0B
:10103C00704780B400AF00BFBD4680BC704780B421
:10104C0000AF00BFBD4680BC704780B500AF00F05C
:10105C0025F900BF80BD000080B500AF024801F04B
:10106C0081F800BF80BD00BFF800002080B400AF45
:10107C0000BFBD4680BC704780B483B000AF7860C1
:10108C0039603B68164A82FB03125211DB17D11AE6
:10109C0014487A6813465B0013449B0003441960A0
:1010AC003B680F4A82FB03125211DB17D11A0D4811
:1010BC007A6813465B0013449B00034404331960A5
:1010CC0008497A6813465B0013449B000B440833B1
:1010DC0000221A6000BF0C37BD4680BC704700BFB1
:1010EC001F85EB514001002080B483B000AF7860C5
:1010FC000F497A6813465B0013449B000B44196834
:10110C000B487A6813465B0013449B00034404337A
:10111C00196007497A6813465B0013449B000B4423
:10112C00083300221A6000BF0C37BD4680BC7047E4
:10113C004001002080B483B000AF00237B6035E019
:10114C001F497A6813465B0013449B000B4404331D
:10115C001B68002B27DD1A497A6813465B00134481
:10116C009B000B4404331B68591E15487A681346C0
:10117C005B0013449B0003440433196010497A68E4
:10118C0013465B0013449B000B4404331B68002B79
:10119C0009DC0B497A6813465B0013449B000B4433
:1011AC00083301221A607B6801337B607B68042B57
:1011BC00C6DD00BF00BF0C37BD4680BC704700BF0A
:1011CC0040010020FFF752FF0B480C490C4A00234A
:1011DC0002E0D458C4500433C4188C42F9D3094AE1
:1011EC00094C002301E013600432A242FBD301F04E
:1011FC00F9FAFFF787FD704700000020500000202F
:10120C00D42800085000002080010020FEE70000D8
:10121C0080B500AF084B1B68074A43F010031360FE
:10122C00032000F023F90F2000F008F8FFF796FEDA
:10123C000023184680BD00BF0020024080B582B05C
:10124C0000AF7860124B1A68124B1B7819464FF49A
:10125C007A73B3FBF1F3B2FBF3F3184600F03BF9EE
:10126C000346002B01D001230EE07B680F2B0AD81C
:10127C00002279684FF0FF3000F003F9064A7B68D2
:10128C001360002300E0012318460837BD4680BDDB
:10129C00440000204C0000204800002080B400AF27
:1012AC00054B1B781A46054B1B681344034A136005
:1012BC0000BFBD4680BC70474C0000207C01002064
:1012CC0080B400AF024B1B681846BD4680BC70470B
:1012DC007C01002080B485B000AF78607B6803F09F
:1012EC000703FB600C4BDB68BB60BA684FF6FF036F
:1012FC001340BB60FB681A02BB68134343F0BF6327
:10130C0043F40033BB60044ABB68D36000BF14379E
:10131C00BD4680BC704700BF00ED00E080B400AF5C
:10132C00044BDB681B0A03F007031846BD4680BC60
:10133C00704700BF00ED00E080B483B000AF0346FF
:10134C00FB7197F90730002B0BDBFB7903F01F02C5
:10135C00064997F907305B09012000FA02F241F8BF
:10136C00232000BF0C37BD4680BC704700E100E075
:10137C0080B483B000AF03463960FB7197F9073036
:10138C00002B0ADB3B68DAB20C4997F907301201E3
:10139C00D2B20B4483F800230AE03B68DAB2084966
:1013AC00FB7903F00F03043B1201D2B20B441A7603
:1013BC0000BF0C37BD4680BC704700BF00E100E0A9
:1013CC0000ED00E080B489B000AFF860B9607A60DD
:1013DC00FB6803F00703FB61FB69C3F10703042BF4
:1013EC0028BF0423BB61FB690433062B02D9FB69BC
:1013FC00033B00E000237B614FF0FF32BB6902FA34
:10140C0003F3DA43BB681A407B699A404FF0FF3113
:10141C007B6901FA03F3D9437B680B4013431846ED
:10142C002437BD4680BC704780B582B000AF786071
:10143C007B68013BB3F1807F01D301230FE00A4AA3
:10144C007B68013B53600F214FF0FF30FFF790FF9B
:10145C00054B00229A60044B07221A6000231846A1
:10146C000837BD4680BD00BF10E000E080B582B0FB
:10147C0000AF78607868FFF72DFF00BF0837BD46D6
:10148C0080BD80B586B000AF0346B9607A60FB734F
:10149C0000237B61FFF742FF78617A68B96878694D
:1014AC00FFF790FF024697F90F3011461846FFF7E9
:1014BC005FFF00BF1837BD4680BD80B582B000AF5E
:1014CC000346FB7197F907301846FFF735FF00BF4D
:1014DC000837BD4680BD80B582B000AF78607868B3
:1014EC00FFF7A2FF034618460837BD4680BD000033
:1014FC0080B48BB000AF7860396000237B6200232E
:10150C003B6248E101227B6A02FA03F3FB613B6810
:10151C001B68FA691340BB61BA69FB699A4240F0D7
:10152C0037813B685B68A34A93425ED0A14A9342E1
:10153C0075D8A14A934258D09F4A93426FD89F4A7C
:10154C00934252D09D4A934269D89D4A93424CD0C3
:10155C009B4A934263D89B4A934246D0994A934202
:10156C005DD8122B2AD8122B59D801A252F823F08D
:10157C00F7150008D1150008E3150008251600081A
:10158C002B1600082B1600082B1600082B1600082B
:10159C002B1600082B1600082B1600082B1600081B
:1015AC002B1600082B1600082B1600082B1600080B
:1015BC002B160008D9150008ED150008824A934235
:1015CC0013D02CE03B68DB683B6229E03B68DB68AE
:1015DC0004333B6224E03B68DB6808333B621FE06A
:1015EC003B68DB680C333B621AE03B689B68002B62
:1015FC0002D104233B6213E03B689B68012B05D1AD
:10160C0008233B627B68FA691A6109E008233B6294
:10161C007B68FA695A6103E000233B6200E000BF7B
:10162C00BB69FF2B01D87B6801E07B6804337B61CD
:10163C00BB69FF2B02D87B6A9B0002E07B6A083BEC
:10164C009B003B617B691A680F213B6901FA03F32C
:10165C00DB431A40396A3B6901FA03F31A437B698D
:10166C001A603B685B6803F08053002B00F090809D
:10167C00564B9B69554A43F001039361534B9B694D
:10168C0003F00103BB60BB68514A7B6A9B080233C1
:10169C0052F82330FB607B6A03F003039B000F229C
:1016AC0002FA03F3DB43FA681340FB607B68494A98
:1016BC0093420DD07B68484A934207D07B68474AD7
:1016CC00934201D1022304E0032302E0012300E052
:1016DC0000237A6A02F0030292009340FA681343E3
:1016EC00FB603B497B6A9B080233FA6841F8232074
:1016FC003B685B6803F48013002B06D0384B9A6868
:10170C003749BB6913438B6006E0354B9A68BB695C
:10171C00DB43334913408B603B685B6803F4001375
:10172C00002B06D02E4BDA682D49BB691343CB60D6
:10173C0006E02B4BDA68BB69DB4329491340CB60CD
:10174C003B685B6803F40033002B06D0244B5A68CB
:10175C002349BB6913434B6006E0214B5A68BB69B4
:10176C00DB431F4913404B603B685B6803F48033D9
:10177C00002B06D01A4B1A681949BB6913430B602E
:10178C0006E0174B1A68BB69DB43154913400B6025
:10179C007B6A01337B623B681A687B6A22FA03F32B
:1017AC00002B7FF4AFAE00BF00BF2C37BD4680BC12
:1017BC00704700BF000032100000311000002210F2
:1017CC000000211000001210000011100010024047
:1017DC000000014000080140000C014000100140D5
:1017EC000004014080B485B000AF78600B467B806C
:1017FC007B689A687B881340002B02D00123FB7313
:10180C0001E00023FB73FB7B18461437BD4680BCFC
:10181C00704780B483B000AF78600B467B80134672
:10182C007B707B78002B03D07A887B681A6103E08D
:10183C007B881A047B681A6100BF0C37BD4680BCDC
:10184C00704780B485B000AF78600B467B807B68B6
:10185C00DB68FB607A88FB6813401A04FB68D94389
:10186C007B880B401A437B681A6100BF1437BD4656
:10187C0080BC704780B586B000AF78607B68002B69
:10188C0001D101236CE27B681B6803F00103002B80
:10189C0000F08780924B5B6803F00C03042B0CD098
:1018AC008F4B5B6803F00C03082B12D18C4B5B68DD
:1018BC0003F48033B3F5803F0BD1894B1B6803F4E1
:1018CC000033002B6CD07B685B68002B68D1012344
:1018DC0046E27B685B68B3F5803F06D1804B1B68A2
:1018EC007F4A43F4803313602EE07B685B68002BE7
:1018FC000CD17B4B1B687A4A23F480331360784BF2
:10190C001B68774A23F4802313601DE07B685B68B7
:10191C00B3F5A02F0CD1724B1B68714A43F4802392
:10192C0013606F4B1B686E4A43F4803313600BE0FB
:10193C006B4B1B686A4A23F480331360684B1B683B
:10194C00674A23F4802313607B685B68002B13D0F9
:10195C00FFF7B6FC386108E0FFF7B2FC02463B69C2
:10196C00D31A642B01D90323FAE15D4B1B6803F4F2
:10197C000033002BF0D014E0FFF7A2FC386108E034
:10198C00FFF79EFC02463B69D31A642B01D9032353
:10199C00E6E1534B1B6803F40033002BF0D100E05D
:1019AC0000BF7B681B6803F00203002B63D04C4B19
:1019BC005B6803F00C03002B0BD0494B5B6803F006
:1019CC000C03082B1CD1464B5B6803F48033002BB3
:1019DC0016D1434B1B6803F00203002B05D07B6828
:1019EC001B69012B01D00123BAE13D4B1B6823F08D
:1019FC00F8027B685B69DB00394913430B603AE002
:101A0C007B681B69002B20D0364B01221A60FFF734
:101A1C0057FC386108E0FFF753FC02463B69D31AC8
:101A2C00022B01D903239BE12D4B1B6803F002030E
:101A3C00002BF0D02A4B1B6823F0F8027B685B6903
:101A4C00DB00274913430B6015E0264B00221A607C
:101A5C00FFF736FC386108E0FFF732FC02463B69C1
:101A6C00D31A022B01D903237AE11D4B1B6803F017
:101A7C000203002BF0D17B681B6803F00803002BDA
:101A8C003AD07B689B69002B19D0174B01221A6046
:101A9C00FFF716FC386108E0FFF712FC02463B69C1
:101AAC00D31A022B01D903235AE10D4B5B6A03F0C5
:101ABC000203002BF0D0012000F09AFA1CE00A4B34
:101ACC0000221A60FFF7FCFB38610FE0FFF7F8FB10
:101ADC0002463B69D31A022B08D9032340E100BF0D
:101AEC000010024000004242800442429E4B5B6A5E
:101AFC0003F00203002BE9D17B681B6803F004039D
:101B0C00002B00F0A6800023FB75974BDB6903F0DC
:101B1C008053002B0DD1944BDB69934A43F08053D7
:101B2C00D361914BDB6903F08053BB60BB6801232D
:101B3C00FB758E4B1B6803F48073002B18D18B4BF9
:101B4C001B688A4A43F480731360FFF7B9FB386152
:101B5C0008E0FFF7B5FB02463B69D31A642B01D9A9
:101B6C000323FDE0814B1B6803F48073002BF0D042
:101B7C007B68DB68012B06D17B4B1B6A7A4A43F0EE
:101B8C00010313622DE07B68DB68002B0CD1764BD4
:101B9C001B6A754A23F001031362734B1B6A724A6A
:101BAC0023F0040313621CE07B68DB68052B0CD16B
:101BBC006D4B1B6A6C4A43F0040313626A4B1B6A3D
:101BCC00694A43F0010313620BE0674B1B6A664AD8
:101BDC0023F001031362644B1B6A634A23F0040372
:101BEC0013627B68DB68002B15D0FFF769FB38614B
:101BFC000AE0FFF765FB02463B69D31A41F28832D3
:101C0C00934201D90323ABE0574B1B6A03F0020349
:101C1C00002BEED014E0FFF753FB38610AE0FFF71E
:101C2C004FFB02463B69D31A41F28832934201D9E9
:101C3C00032395E04C4B1B6A03F00203002BEED1FF
:101C4C00FB7D012B05D1484BDB69474A23F08053C0
:101C5C00D3617B68DB69002B00F08180424B5B68B1
:101C6C0003F00C03082B61D07B68DB69022B46D197
:101C7C003F4B00221A60FFF723FB386108E0FFF7A7
:101C8C001FFB02463B69D31A022B01D9032367E0E1
:101C9C00354B1B6803F00073002BF0D17B681B6A7B
:101CAC00B3F5803F08D1304B5B6823F400327B687E
:101CBC009B682D4913434B602B4B5B6823F47412C8
:101CCC007B68196A7B685B6A0B43274913434B603B
:101CDC00274B01221A60FFF7F3FA386108E0FFF78F
:101CEC00EFFA02463B69D31A022B01D9032337E0E2
:101CFC001D4B1B6803F00073002BF0D02FE01C4B26
:101D0C0000221A60FFF7DCFA386108E0FFF7D8FA16
:101D1C0002463B69D31A022B01D9032320E0124B54
:101D2C001B6803F00073002BF0D118E07B68DB69B3
:101D3C00012B01D1012313E00B4B5B68FB60FB68AB
:101D4C0003F480327B681B6A9A4206D1FB6803F469
:101D5C0070127B685B6A9A4201D0012300E0002379
:101D6C0018461837BD4680BD001002400070004078
:101D7C006000424280B584B000AF786039607B6807
:101D8C00002B01D10123D0E06A4B1B6803F0070341
:101D9C003A689A4210D9674B1B6823F007026549D1
:101DAC003B6813430B60634B1B6803F007033A68F3
:101DBC009A4201D00123B8E07B681B6803F0020350
:101DCC00002B20D07B681B6803F00403002B05D08C
:101DDC00594B5B68584A43F4E06353607B681B685B
:101DEC0003F00803002B05D0534B5B68524A43F4B5
:101DFC0060535360504B5B6823F0F0027B689B6828
:101E0C004D4913434B607B681B6803F00103002BA7
:101E1C0040D07B685B68012B07D1474B1B6803F4F0
:101E2C000033002B15D101237FE07B685B68022B0C
:101E3C0007D1414B1B6803F00073002B09D1012320
:101E4C0073E03D4B1B6803F00203002B01D101230F
:101E5C006BE0394B5B6823F003027B685B683649A7
:101E6C0013434B60FFF72CFAF8600AE0FFF728FAEF
:101E7C000246FB68D31A41F28832934201D90323FC
:101E8C0053E02D4B5B6803F00C027B685B689B0096
:101E9C009A42EBD1274B1B6803F007033A689A422E
:101EAC0010D2244B1B6823F0070222493B681343D2
:101EBC000B60204B1B6803F007033A689A4201D071
:101ECC00012332E07B681B6803F00403002B08D06D
:101EDC00194B5B6823F4E0627B68DB68164913439B
:101EEC004B607B681B6803F00803002B09D0124B76
:101EFC005B6823F460527B681B69DB000E4913435B
:101F0C004B6000F021F802460B4B5B681B0903F099
:101F1C000F030A49CB5C22FA03F3094A1360094BFD
:101F2C001B681846FFF78AF9002318461037BD4680
:101F3C0080BD00BF0020024000100240A82800080D
:101F4C00440000204800002080B487B000AF00237C
:101F5C00FB600023BB6000237B6100237B600023BC
:101F6C003B611E4B5B68FB60FB6803F00C03042BAE
:101F7C0002D0082B03D027E0194B3B6127E0FB680C
:101F8C009B0C03F00F03174AD35C7B60FB6803F4D4
:101F9C008033002B10D0114B5B685B0C03F00103FA
:101FAC00114AD35CBB607B680D4A02FB03F2BB6831
:101FBC00B2FBF3F37B6104E07B680C4A02FB03F396
:101FCC007B617B693B6102E0054B3B6100BF3B6978
:101FDC0018461C37BD4680BC704700BF001002403D
:101FEC0000127A00B8280008C828000800093D0033
:101FFC0080B485B000AF78600A4B1B680A4AA2FB1C
:10200C0003235B0A7A6802FB03F3FB6000BFFB68E7
:10201C005A1EFA60002BF9D100BF00BF1437BD4621
:10202C0080BC704744000020D34D621080B582B054
:10203C0000AF78607B68002B01D1012341E07B6805
:10204C0093F83D30DBB2002B06D17B68002283F87D
:10205C003C207868FEF7B4FF7B68022283F83D20B1
:10206C007B681A687B6804331946104600F056FAF0
:10207C007B68012283F846207B68012283F83E208E
:10208C007B68012283F83F207B68012283F8402083
:10209C007B68012283F841207B68012283F842206F
:1020AC007B68012283F843207B68012283F844205B
:1020BC007B68012283F845207B68012283F83D2050
:1020CC00002318460837BD4680BD000080B485B09B
:1020DC0000AF78607B6893F83D30DBB2012B01D008
:1020EC00012335E07B68022283F83D207B681B6866
:1020FC00DA687B681B6842F00102DA607B681B6857
:10210C00164A934209D07B681B68B3F1804F04D008
:10211C007B681B68124A934211D17B681B689B68D1
:10212C0003F00703FB60FB68062B10D07B681B6871
:10213C001A687B681B6842F001021A6007E07B6832
:10214C001B681A687B681B6842F001021A60002346
:10215C0018461437BD4680BC704700BF002C0140A8
:10216C000004004080B584B000AF78607B681B68C9
:10217C00DB68FB607B681B681B69BB60BB6803F09A
:10218C000203002B20D0FB6803F00203002B1BD0B2
:10219C007B681B686FF002021A617B6801221A7758
:1021AC007B681B689B6903F00303002B03D07868E2
:1021BC0000F098F905E0786800F08BF9786800F089
:1021CC009AF97B6800221A77BB6803F00403002B92
:1021DC0020D0FB6803F00403002B1BD07B681B682A
:1021EC006FF004021A617B6802221A777B681B6805
:1021FC009B6903F44073002B03D0786800F072F9EC
:10220C0005E0786800F065F9786800F074F97B688F
:10221C0000221A77BB6803F00803002B20D0FB6860
:10222C0003F00803002B1BD07B681B686FF00802BF
:10223C001A617B6804221A777B681B68DB6903F0E0
:10224C000303002B03D0786800F04CF905E07868A4
:10225C0000F03FF9786800F04EF97B6800221A779D
:10226C00BB6803F01003002B20D0FB6803F01003B5
:10227C00002B1BD07B681B686FF010021A617B6807
:10228C0008221A777B681B68DB6903F44073002B08
:10229C0003D0786800F026F905E0786800F019F9A9
:1022AC00786800F028F97B6800221A77BB6803F085
:1022BC000103002B0CD0FB6803F00103002B07D0AB
:1022CC007B681B686FF001021A617868FEF730FEBC
:1022DC00BB6803F08003002B0CD0FB6803F0800379
:1022EC00002B07D07B681B686FF080021A6178683E
:1022FC0000F06FFABB6803F04003002B0CD0FB68B6
:10230C0003F04003002B07D07B681B686FF0400282
:10231C001A61786800F0F8F8BB6803F02003002B12
:10232C000CD0FB6803F02003002B07D07B681B68E4
:10233C006FF020021A61786800F042FA00BF103783
:10234C00BD4680BD80B584B000AF78603960002395
:10235C00FB737B6893F83C30012B01D10223B4E072
:10236C007B68012283F83C207B68022283F83D20A5
:10237C007B681B689B68BB60BB6823F07703BB6002
:10238C00BB6823F47F43BB607B681B68BA689A60A8
:10239C003B681B68B3F5005F3ED0B3F5005F00F2FD
:1023AC008780B3F5805F00F08680B3F5805F7FD8BF
:1023BC00702B1AD0702B7BD8602B50D0602B77D819
:1023CC00502B3CD0502B73D8402B58D0402B6FD86F
:1023DC00302B64D0302B6BD8202B60D0202B67D8BF
:1023EC00002B5CD0102B5AD062E07B6818683B68DD
:1023FC0099683B685A683B68DB6800F06AF97B684F
:10240C001B689B68BB60BB6843F07703BB607B6851
:10241C001B68BA689A604FE07B6818683B689968DB
:10242C003B685A683B68DB6800F053F97B681B68B3
:10243C009A687B681B6842F480429A603CE07B6837
:10244C0018683B6859683B68DB681A4600F0CAF8A4
:10245C007B681B685021184600F021F92CE07B6842
:10246C0018683B6859683B68DB681A4600F0E8F866
:10247C007B681B686021184600F011F91CE07B6832
:10248C0018683B6859683B68DB681A4600F0AAF884
:10249C007B681B684021184600F001F90CE07B6852
:1024AC001A683B681B681946104600F0F8F803E000
:1024BC000123FB7300E000BF7B68012283F83D2001
:1024CC007B68002283F83C20FB7B18461037BD4606
:1024DC0080BD80B483B000AF786000BF0C37BD46C0
:1024EC0080BC704780B483B000AF786000BF0C37FD
:1024FC00BD4680BC704780B483B000AF786000BF2D
:10250C000C37BD4680BC704780B483B000AF786098
:10251C0000BF0C37BD4680BC7047000080B485B04E
:10252C0000AF786039607B681B68FB607B682B4A66
:10253C00934207D07B68B3F1804F03D07B68284A65
:10254C00934208D1FB6823F07003FB603B685B6827
:10255C00FA681343FB607B68204A934207D07B6880
:10256C00B3F1804F03D07B681D4A934208D1FB68BE
:10257C0023F44073FB603B68DB68FA681343FB6031
:10258C00FB6823F080023B685B691343FB607B684C
:10259C00FA681A603B689A687B68DA623B681A686A
:1025AC007B689A627B680D4A934203D13B681A6937
:1025BC007B681A637B6801225A617B681B6903F094
:1025CC000103002B05D07B681B6923F001027B689B
:1025DC001A6100BF1437BD4680BC7047002C014007
:1025EC000004004080B487B000AFF860B9607A6036
:1025FC00FB681B6A7B61FB681B6A23F00102FB68AA
:10260C001A62FB689B693B613B6923F0F0033B61F9
:10261C007B681B013A6913433B617B6923F00A0316
:10262C007B617A69BB6813437B61FB683A699A6189
:10263C00FB687A691A6200BF1C37BD4680BC7047C4
:10264C0080B487B000AFF860B9607A60FB681B6A31
:10265C007B61FB681B6A23F01002FB681A62FB6843
:10266C009B693B613B6923F470433B617B681B03B3
:10267C003A6913433B617B6923F0A0037B61BB6820
:10268C001B017A6913437B61FB683A699A61FB68A9
:10269C007A691A6200BF1C37BD4680BC704780B493
:1026AC0085B000AF786039607B689B68FB60FB6825
:1026BC0023F07003FB603A68FB68134343F0070395
:1026CC00FB607B68FA689A6000BF1437BD4680BC1B
:1026DC00704780B487B000AFF860B9607A603B6037
:1026EC00FB689B687B617B6923F47F437B613B6860
:1026FC001A027B681A43BB6813437A6913437B61E4
:10270C00FB687A699A6000BF1C37BD4680BC704775
:10271C0080B485B000AF786039607B6893F83C304A
:10272C00012B01D1022341E07B68012283F83C207C
:10273C007B68022283F83D207B681B685B68FB602A
:10274C007B681B689B68BB60FB6823F07003FB60B5
:10275C003B681B68FA681343FB607B681B68FA686C
:10276C005A607B681B68144A934209D07B681B68CB
:10277C00B3F1804F04D07B681B68104A93420CD194
:10278C00BB6823F08003BB603B685B68BA6813438B
:10279C00BB607B681B68BA689A607B68012283F80F
:1027AC003D207B68002283F83C2000231846143718
:1027BC00BD4680BC704700BF002C014000040040A7
:1027CC0080B483B000AF786000BF0C37BD4680BCCE
:1027DC00704780B483B000AF786000BF0C37BD4643
:1027EC0080BC704770B500260C4D0D4C641BA410BA
:1027FC00A64209D100F022F800260A4D0A4C641BAF
:10280C00A410A64205D170BD55F8043B984701367B
:10281C00EEE755F8043B98470136F2E7CC28000860
:10282C00CC280008CC280008D02800080346024415
:10283C00934200D1704703F8011BF9E7F8B500BFCC
:10284C00F8BC08BC9E467047F8B500BFF8BC08BC85
:04285C009E467047DD
:102860000000000000000101000001010101000062
:102870000100000100000000000101000100000152
:102880000100000001000001000000010000000044
:102890000000000001010101000000000000000034
:1028A0000000000100000000000000000000000027
:1028B00001020304060708090203040506070809C4
:0C28C0000A0B0C0D0E0F1010010200009E
:0428CC0031010008CE
:0428D0000D010008EE
:1028D4000100020004000800100020004000000075
:1028E4008000000100020004000800100020000025
:1028F40000040008001000800A0000000700000027
:1029040003000000200002000400080040008000D2
:102914000001000000127A00100000000100000015
:04000005080011D10D
:00000001FF
