:020000040800F2
:10000000002800208D190008D1170008D717000814
:10001000DD170008E3170008E917000800000000DA
:10002000000000000000000000000000EF170008C2
:10003000FB1700080000000007180008131800084C
:10004000D5190008D5190008D5190008D5190008D8
:10005000D5190008D5190008D5190008D5190008C8
:10006000D5190008D5190008D5190008D5190008B8
:10007000D5190008D5190008D5190008D5190008A8
:10008000D5190008D5190008D5190008D519000898
:10009000D5190008D5190008D5190008D519000888
:1000A000D5190008D5190008D5190008D519000878
:1000B00021180008D519000800000000D519000813
:1000C000D51900080000000000000000D519000844
:1000D00000000000D5190008D51900080000000034
:1000E000D5190008D5190008D5190008000000002E
:1000F0000000000000000000000000000000000000
:0C01000000000000000000005FF808F1A3
:1001100010B5054C237833B9044B13B10448AFF341
:1001200000800123237010BD50000020000000005B
:100130005031000808B5034B1BB103490348AFF326
:10014000008008BD0000000054000020503100086D
:1001500070B54FF0FF0C4CF4E06C1CEA11541DBF5D
:100160001CEA135594EA0C0F95EA0C0F00F0DEF828
:100170002C4481EA030621EA4C5123EA4C5350EA0D
:10018000013518BF52EA033541F4801143F480135E
:1001900038D0A0FB02CE4FF00005E1FB02E506F0EF
:1001A0000042E0FB03E54FF00006E1FB03569CF044
:1001B000000F18BF4EF0010EA4F1FF04B6F5007F4A
:1001C00064F5407404D25FEA4E0E6D4146EB0606BC
:1001D00042EAC62141EA55514FEAC52040EA5E5045
:1001E0004FEACE2EB4F1FD0C88BFBCF5E06F1ED8EF
:1001F000BEF1004F08BF5FEA500E50F1000041EB26
:10020000045170BD06F0004646EA010140EA0200D2
:1002100081EA0301B4EB5C04C2BFD4EB0C0541EAF4
:10022000045170BD41F480114FF0000E013C00F309
:10023000AB8014F1360FDEBF002001F0004170BD2D
:10024000C4F10004203C35DA0C341BDC04F1140446
:10025000C4F1200500FA05F320FA04F001FA05F2D2
:1002600040EA020001F0004221F0004110EBD3709F
:1002700021FA04F642EB06015EEA430E08BF20EACB
:10028000D37070BDC4F10C04C4F1200500FA04F36E
:1002900020FA05F001FA04F240EA020001F0004100
:1002A00010EBD37041F100015EEA430E08BF20EA73
:1002B000D37070BDC4F1200500FA05F24EEA020EBB
:1002C00020FA04F301FA05F243EA020321FA04F0EA
:1002D00001F0004121FA04F220EA020000EBD370A1
:1002E0005EEA430E08BF20EAD37070BD94F0000FA1
:1002F0000FD101F00046400041EB010111F4801FD5
:1003000008BF013CF7D041EA060195F0000F18BF85
:10031000704703F00046520043EB030313F4801FC1
:1003200008BF013DF7D043EA0603704794EA0C0F7B
:100330000CEA135518BF95EA0C0F0CD050EA410691
:1003400018BF52EA4306D1D181EA030101F000410E
:100350004FF0000070BD50EA410606BF1046194636
:1003600052EA430619D094EA0C0F02D150EA013642
:1003700013D195EA0C0F05D152EA03361CBF104683
:1003800019460AD181EA030101F0004141F0FE4122
:1003900041F470014FF0000070BD41F0FE4141F4A6
:1003A000780170BD81F0004102E000BF83F000439E
:1003B00030B54FEA41044FEA430594EA050F08BF00
:1003C00090EA020F1FBF54EA000C55EA020C7FEAC4
:1003D000645C7FEA655C00F0E2804FEA5454D4EB41
:1003E0005555B8BF6D420CDD2C4480EA020281EA0B
:1003F000030382EA000083EA010180EA020281EA43
:100400000303362D88BF30BD11F0004F4FEA013194
:100410004FF4801C4CEA113102D0404261EB4101A3
:1004200013F0004F4FEA03334CEA133302D0524229
:1004300063EB430394EA050F00F0A780A4F10104E5
:10044000D5F1200E0DDB02FA0EFC22FA05F280181F
:1004500041F1000103FA0EF2801843FA05F3594105
:100460000EE0A5F120050EF1200E012A03FA0EFC84
:1004700028BF4CF0020C43FA05F3C01851EBE371AE
:1004800001F0004507D54FF0000EDCF1000C7EEBCB
:1004900000006EEB0101B1F5801F1BD3B1F5001F09
:1004A0000CD349085FEA30004FEA3C0C04F1010428
:1004B0004FEA445212F5800F80F09A80BCF1004F51
:1004C00008BF5FEA500C50F1000041EB045141EAD3
:1004D000050130BD5FEA4C0C404141EB0101013C9C
:1004E00028BFB1F5801FE9D291F0000F04BF01468B
:1004F0000020B1FA81F308BF2033A3F10B03B3F15D
:1005000020020CDA0C3208DD02F1140CC2F10C02EC
:1005100001FA0CF021FA02F10CE002F11402D8BF4A
:10052000C2F1200C01FA02F120FA0CFCDCBF41EA16
:100530000C019040E41AA2BF01EB0451294330BDE5
:100540006FEA04041F3C1CDA0C340EDC04F11404C2
:10055000C4F1200220FA04F001FA02F340EA030099
:1005600021FA04F345EA030130BDC4F10C04C4F1DF
:10057000200220FA02F001FA04F340EA03002946BF
:1005800030BD21FA04F0294630BD94F0000F83F409
:10059000801306BF81F480110134013D4EE77FEAEC
:1005A000645C18BF7FEA655C29D094EA050F08BF38
:1005B00090EA020F05D054EA000C04BF1946104619
:1005C00030BD91EA030F1EBF0021002030BD5FEA5D
:1005D000545C05D14000494128BF41F0004130BD85
:1005E00014F580043CBF01F5801130BD01F00045D9
:1005F00045F0FE4141F470014FF0000030BD7FEA4C
:10060000645C1ABF194610467FEA655C1CBF0B4646
:10061000024650EA013406BF52EA033591EA030F5D
:1006200041F4002130BD00BF90F0000F04BF002155
:10063000704730B54FF4806404F132044FF0000588
:100640004FF0000150E700BF90F0000F04BF002101
:10065000704730B54FF4806404F1320410F0004567
:1006600048BF40424FF000013EE700BF42004FEA62
:10067000E2014FEA31014FEA02701FBF12F07F43DF
:1006800093F07F4F81F06051704732F07F4208BF96
:10069000704793F07F4F04BF41F40021704730B59D
:1006A0004FF4607401F0004521F000411CE700BFE9
:1006B00050EA010208BF704730B54FF000050AE06C
:1006C00050EA010208BF704730B511F0004502D56D
:1006D000404261EB41014FF4806404F132045FEA6F
:1006E000915C3FF4D8AE4FF003025FEADC0C18BF18
:1006F00003325FEADC0C18BF033202EBDC02C2F10A
:10070000200300FA03FC20FA02F001FA03FE40EA9B
:100710000E0021FA02F11444BDE600BF4FF0FF3C89
:1007200006E000BF4FF0010C02E000BF4FF0010CEB
:100730004DF804CD4FEA410C7FEA6C5C4FEA430C64
:1007400018BF7FEA6C5C1BD001B050EA410C0CBFB3
:1007500052EA430C91EA030F02BF90EA020F002015
:10076000704710F1000F91EA030F58BF994208BF7C
:1007700090422CBFD8176FEAE37040F00100704739
:100780004FEA410C7FEA6C5C02D150EA013C07D190
:100790004FEA430C7FEA6C5CD6D152EA033CD3D0DB
:1007A0005DF8040B704700BF8446104662468C46D5
:1007B0001946634600E000BF01B5FFF7B7FF002808
:1007C00048BF10F1000F01BD4DF808EDFFF7F4FF31
:1007D0000CBF012000205DF808FB00BF4DF808EDBC
:1007E000FFF7EAFF34BF012000205DF808FB00BFDF
:1007F0004DF808EDFFF7E0FF94BF012000205DF801
:1008000008FB00BF4DF808EDFFF7CEFF94BF0120B5
:1008100000205DF808FB00BF4DF808EDFFF7C4FFAE
:1008200034BF012000205DF808FB00BF4FEA410201
:1008300012F5001215D211D56FF47873B3EB625232
:1008400012D94FEAC12343F0004343EA505311F059
:10085000004F23FA02F018BF404270474FF00000EB
:10086000704750EA013005D111F0004008BF6FF029
:10087000004070474FF00000704700BF80B584B063
:1008800000AF786039607B68002B02DB7B68092B46
:1008900001DD00237B600023FB6019E0FB685B0047
:1008A0003A68134419880E487A681346DB009B1A8D
:1008B000C218FB6813441B78002B14BF01230023CC
:1008C000DBB21A46074801F0ACFBFB680133FB6062
:1008D000FB68062BE2DD00BF00BF1037BD4680BDC0
:1008E00068310008000C014080B586B000AF786028
:1008F0003960354BDB6A012B61D17B68334A82FB5F
:1009000003129210DB17D31A7B617A682F4B83FB9B
:1009100002139910D317C91A0B469B000B445B00B6
:10092000D31A3B613B68294A82FB03129210DB1702
:10093000D31AFB603A68254B83FB02139910D31737
:10094000C91A0B469B000B445B00D31ABB60204BBB
:100950001B68012B13D1002210211E4801F061FBFE
:1009600000224FF400711B4801F05BFB1A497869C3
:10097000FFF784FF1949F868FFF780FF16E0144B72
:100980001B68002B12D101221021124801F049FBF3
:1009900001224FF400710F4801F043FB0E49386902
:1009A000FFF76CFF0D49B868FFF768FF084B1B683D
:1009B000C3F10103064A1360032000F079FF00BF72
:1009C0001837BD4680BD00BF4801002067666666D7
:1009D0006C000020000801400000002010000020F2
:1009E00080B483B000AF78607B68042B02DC7B6846
:1009F000002B02DA4FF0FF3317E00E497A681346F6
:100A0000DB009B1A9B000B4414331B68012B0BD19A
:100A100008497A681346DB009B1A9B000B44143389
:100A200000221A60012300E0002318460C37BD465F
:100A300080BC70478400002080B500AF0020FFF725
:100A4000CFFF0346184680BD80B500AF0120FFF7F9
:100A5000C7FF0346184680BD80B500AF0220FFF7F0
:100A6000BFFF0346184680BD80B500AF0320FFF7E7
:100A7000B7FF0346184680BD80B582B000AF0023A3
:100A80007B60F8E080497A681346DB009B1A9B0084
:100A90000B44043319687C487A681346DB009B1AC0
:100AA0009B0003440833196077497A681346DB00DA
:100AB0009B1A9B000B44196873487A681346DB0045
:100AC0009B1A9B00034404331960704A7B6832F818
:100AD000133019466E4801F08DFA034618466A49EC
:100AE0007A681346DB009B1A9B000B44186066492A
:100AF0007A681346DB009B1A9B000B441968624816
:100B00007A681346DB009B1A9B00034404331B687E
:100B1000994240F0AD805C497A681346DB009B1A2D
:100B20009B000B440433196857487A681346DB006E
:100B30009B1A9B00034408331B68994240F098803D
:100B400051497A681346DB009B1A9B000B4408331B
:100B500019684D487A681346DB009B1A9B000344D2
:100B60000C331B68994231D047497A681346DB0041
:100B70009B1A9B000B440833196843487A68134654
:100B8000DB009B1A9B0003440C3319603E497A68D2
:100B90001346DB009B1A9B000B440C331B68002B95
:100BA00066D139497A681346DB009B1A9B000B44D7
:100BB000103332221A6034497A681346DB009B1ADC
:100BC0009B000B44143301221A6051E02E497A68CD
:100BD0001346DB009B1A9B000B440C331B68002B55
:100BE0003CD129497A681346DB009B1A9B000B44D1
:100BF00010331B68591E24487A681346DB009B1A81
:100C00009B000344103319601F497A681346DB00C8
:100C10009B1A9B000B4410331B68002B28DC1A49DD
:100C20007A681346DB009B1A9B000B441033322278
:100C30001A6015497A681346DB009B1A9B000B4427
:100C4000143301221A6010497A681346DB009B1A9C
:100C50009B000B44183301221A6009E00A497A68A4
:100C60001346DB009B1A9B000B44183300221A60CA
:100C70007B6801337B607B68032B7FF703AF00BF8A
:100C800000BF0837BD4680BD840000202000002042
:100C90000008014080B500AFFFF7CEFE0346002BF1
:100CA00005D0274B02221A6000F04AF946E0254B96
:100CB0009B68012B06D1002000F078FB002000F09B
:100CC000F7FD3BE01F4B5B69012B0DD11E4B1B68F1
:100CD000013B1D4A13601D4B1B68013B1B4A1360FF
:100CE000012000F0E5FD29E0164B1B6A012B1DD108
:100CF000174B1B68032B17D801A252F823F000BF33
:100D0000110D0008170D00081D0D0008230D000827
:100D100000F07EF809E000F0ABF806E000F0E0F843
:100D200003E000F03DF800E000BF07E0064B1B6861
:100D3000064A126811461846FFF7D6FD80BD00BF6F
:100D4000800000204801002074000020780000206E
:100D50007000002080B500AF4FF47A71012000F0E0
:100D60006FFD0E4B1B68032B15D801A252F823F020
:100D7000810D0008870D00088D0D0008930D0008F7
:100D800000F00EF808E000F043F805E000F070F81D
:100D900002E000F0A5F800BF00BF80BD7000002099
:100DA00080B500AF012000F0D5FA062000F0D2FA9D
:100DB000022000F0E5FA032000F0E2FA042000F03F
:100DC000DFFA052000F0DCFA0C4B00221A600C4B15
:100DD0001B684FF47A7202FB03F31946022000F0FD
:100DE0002FFD084B1B68084A1360054B1B68074A18
:100DF0001360012000F05CFD00BF80BD700000208A
:100E0000300000202800002074000020780000201E
:100E100080B500AF012000F09DFA052000F09AFA9D
:100E2000022000F0ADFA032000F0AAFA042000F03E
:100E3000A7FA062000F0A4FA0A4B01221A600A4B16
:100E40001B684FF47A7202FB03F31946022000F08C
:100E5000F7FC054B1B68054A1360012000F028FDD4
:100E600000BF80BD700000202C0000207800002012
:100E700080B500AF032000F06DFA042000F06AFA9C
:100E8000022000F07DFA012000F07AFA062000F03E
:100E900077FA052000F074FA0C4B02221A600C4B12
:100EA0001B684FF47A7202FB03F31946022000F02C
:100EB000C7FC074B1B68074A1360074B1B68074AB0
:100EC0001360012000F0F4FC00BF80BD7000002022
:100ED000300000207400002028000020780000204E
:100EE00080B500AF022000F035FA042000F032FA9D
:100EF000012000F045FA032000F042FA062000F03D
:100F00003FFA052000F03CFA0A4B03221A600A4B14
:100F10001B684FF47A7202FB03F31946022000F0BB
:100F20008FFC054B1B68054A1360012000F0C0FCD4
:100F300000BF80BD700000202C0000207400002045
:100F400080B500AF0F4B05221A600E4B1B68184688
:100F500000F040FA44F62061022000F071FC4FF4EA
:100F6000FA71012000F06CFC074B1B68074A136004
:100F7000074B1B68074A1360074B1B68074A13603F
:100F800000BF80BD7C00002028000020F800002069
:100F90002C000020F400002030000020FC00002085
:100FA00080B500AF4FF47A71012000F049FC0E4B80
:100FB0001B68012B02D10C4B02221A600A4B1B68E2
:100FC000032B02D1084B00221A60074B1B68002B31
:100FD00004D0022B05D1FFF74BFF02E0FFF7E0FE44
:100FE00000BF00BF80BD00BF7000002080B500AF13
:100FF000FFF73AFD0346002B05D0124B01221A6081
:10100000FFF7A8FE1CE0FFF727FD0346002B13D0D7
:101010000D4B1B68002B07D0022B0BD10A4B002273
:101020001A60FFF7BDFE06E0074B02221A60FFF7C9
:101030001FFF00E000BF03E000210020FFF754FC89
:1010400080BD00BF80000020700000200000000074
:10105000B0B500AF9C4B1B6A012B05D19B4B012205
:101060001A60FFF777FE27E1FFF7FEFC0346002B2F
:1010700005D0964B03221A60FFF792FF1CE1FFF7A1
:10108000EBFC0346002B00F09280904B01221A608B
:101090008F4B1B68052B07D0052B00F38280032B99
:1010A00067D0042B71D07CE08A4B1A688A4B1B688E
:1010B0009A4223DA874B1B68874A1360864B1B686A
:1010C0001846FFF7C1FA7EA3D3E90023FFF740F8E3
:1010D00002460B461046194601F0BAFF02460B467F
:1010E00010461946FFF7A2FB03467C4A13607A4B71
:1010F0001A687A4B1B68D31A794A1360754B1A68C1
:10110000754B1B689A424EDD744B1B681846FFF7FF
:101110009BFA04460D466F4B1A686F4B1B68D31A37
:101120001846FFF791FA66A3D3E90023FFF710F8FA
:1011300002460B461046194601F08AFF02460B464E
:1011400020462946FFF734F902460B461046194659
:10115000FFF76CFB0346614A13605E4B1B685E4AF7
:1011600013605D4B1A685D4B1B68D31A5C4A1360B1
:1011700019E05C4B1B68594A1360584B1A68584B6E
:101180001B681344544A13600EE0574B1B68544AC3
:101190001360524B1A68524B1B6813444E4A13603B
:1011A00002E000BF00E000BFFFF7D4FD84E0FFF7DE
:1011B00043FC0346002B27D04FF4FA71012000F0C6
:1011C0003FFB434B1B68052B06D0052B15DC032B7F
:1011D00006D0042B08D010E03D4B03221A600DE02E
:1011E0003B4B04221A6009E0394B05221A60374B49
:1011F00001221A60FFF7AEFD5EE000BF344B1B68B2
:10120000184600F0E7F857E0FFF71EFC0346002BF6
:101210001DD02F4B1B68052B06D0052B49DC032B5B
:1012200008D0042B0CD044E02A4B1B680133294A18
:1012300013600BE02B4B1B6801332A4A136005E057
:10124000294B1B680133284A136032E031E01E4B02
:101250005B69012B07D1012000F02AFB1C4B1B68A6
:10126000184600F006F91A4B1B68052B06D0052B13
:1012700021DC032B0BD0042B12D01CE0154B1B6878
:10128000144A126811461846FFF72EFB14E0154B5E
:101290001B68144A126811461846FFF725FB0BE03D
:1012A000114B1B68104A126811461846FFF71CFBC9
:1012B00002E000BF00E000BFB0BD00BFAFF30080A0
:1012C000333333333333E33F4801002080000020C1
:1012D0007C000020F80000202800002030000020C2
:1012E0002C000020FC000020F400002080B500AF9E
:1012F000174B1B68032B28D801A252F823F000BF1C
:1013000011130008391300083F13000845130008A3
:101310000F4B01221A604FF4FA71002000F090FA8E
:101320006421032000F08CFA4FF47A71012000F060
:1013300087FAFFF735FD09E0FFF7ACFC06E0FFF7A1
:1013400087FE03E0FFF752FE00E000BF00BF80BD54
:101350008000002080B582B000AF7860064A7B68CC
:1013600032F8133001221946044800F05AFE00BF3B
:101370000837BD4680BD00BF340000200008014092
:1013800080B582B000AF7860064A7B6832F81330CF
:1013900000221946044800F044FE00BF0837BD464D
:1013A00080BD00BF340000200008014080B582B03D
:1013B00000AF7860054A7B6832F81330194604485C
:1013C00000F047FE00BF0837BD4680BD3400002056
:1013D0000008014080B582B000AF78607B68052BC3
:1013E00009D07B68052B3FDC7B68032B29D07B6809
:1013F000042B13D038E00120FFF7ACFF0420FFF7E7
:10140000A9FF0320FFF7BCFF0620FFF7B9FF02206A
:10141000FFF7B6FF0520FFF7B3FF26E00220FFF736
:1014200099FF0520FFF796FF0120FFF7A9FF042091
:10143000FFF7A6FF0220FFF7A3FF0520FFF7A0FF9D
:1014400013E00320FFF786FF0620FFF783FF01204C
:10145000FFF796FF0420FFF793FF0220FFF790FFAE
:101460000520FFF78DFF00E000BF00BF0837BD4635
:1014700080BD80B582B000AF78607B68052B09D055
:101480007B68052B1BDC7B68032B11D07B68042B4E
:1014900007D014E00120FFF789FF0420FFF786FF43
:1014A0000EE00220FFF782FF0520FFF77FFF07E035
:1014B0000320FFF77BFF0620FFF778FF00E000BF67
:1014C00000BF0837BD4680BD80B500AF00F084FA8C
:1014D00000F010F800F096F800F048F8044801F029
:1014E000FDF9FFF703FF052000F0D8FAF9E700BF88
:1014F0000001002080B590B000AF07F1180328224A
:101500000021184601F09AFD3B1D00221A605A6026
:101510009A60DA601A610223BB610123BB62102367
:10152000FB6200237B6307F11803184600F0AAFD55
:101530000346002B01D000F0EFF80F237B6000235F
:10154000BB600023FB6000233B6100237B613B1DEC
:101550000021184601F016F80346002B01D000F0D8
:10156000DBF800BF4037BD4680BD000080B586B0C7
:1015700000AF07F1080300221A605A609A60DA602F
:101580003B4600221A605A601D4B4FF080421A60A1
:101590001B4B41F63F725A60194B00229A60184B60
:1015A0006322DA60164B00221A61154B00229A6101
:1015B000134801F043F90346002B01D000F0ACF8CA
:1015C0004FF48053BB6007F1080319460C4801F043
:1015D000C1FA0346002B01D000F09EF800233B60C7
:1015E00000237B603B461946054801F099FC034601
:1015F000002B01D000F090F800BF1837BD4680BD29
:101600000001002080B588B000AF07F11003002270
:101610001A605A609A60DA60354B9B69344A43F02D
:1016200010039361324B9B6903F01003FB60FB686E
:101630002F4B9B692E4A43F0040393612C4B9B690B
:1016400003F00403BB60BB68294B9B69284A43F045
:1016500008039361264B9B6903F008037B607B685A
:10166000002240F2FE31234800F0DBFC002243F66A
:10167000FF71214800F0D5FC4FF400533B6100237B
:101680007B610123BB6107F1100319461B4800F081
:1016900037FB40F2FE333B6101237B610023BB61DA
:1016A0000223FB6107F110031946124800F028FBE2
:1016B00043F6FF733B6101237B610023BB6102237F
:1016C000FB6107F1100319460B4800F019FB4FF4BA
:1016D0001C433B6100237B610123BB6107F11003C5
:1016E0001946044800F00CFB00BF2037BD4680BD02
:1016F0000010024000080140000C014000100140B1
:1017000080B582B000AF7860FFF7B6F900F0F6F868
:1017100000BF0837BD4680BD80B400AF72B600BFC1
:10172000FEE7000080B485B000AF154B9B69144AFA
:1017300043F001039361124B9B6903F00103BB600B
:10174000BB680F4BDB690E4A43F08053D3610C4BEF
:10175000DB6903F080537B607B680A4B5B68FB604E
:10176000FB6823F0E063FB60FB6843F00073FB6001
:10177000044AFB68536000BF1437BD4680BC704705
:10178000001002400000014080B584B000AF7860D6
:101790007B681B68B3F1804F13D10C4BDB690B4A9C
:1017A00043F00103D361094BDB6903F00103FB60E4
:1017B000FB68002200211C2000F06BFA1C2000F0C6
:1017C00084FA00BF1037BD4680BD00BF0010024044
:1017D00080B400AFFEE780B400AFFEE780B400AF96
:1017E000FEE780B400AFFEE780B400AFFEE780B450
:1017F00000AF00BFBD4680BC704780B400AF00BFE3
:10180000BD4680BC704780B400AF00BFBD4680BC01
:10181000704780B500AF00F025F900BF80BD000023
:1018200080B500AF024801F0A5F800BF80BD00BF41
:101830000001002080B400AF00BFBD4680BC7047EF
:1018400080B483B000AF786039603B68164A82FB91
:1018500003125211DB17D11A14487A6813465B0041
:1018600013449B00034419603B680F4A82FB031238
:101870005211DB17D11A0D487A6813465B001344E6
:101880009B0003440433196008497A6813465B00DF
:1018900013449B000B44083300221A6000BF0C372E
:1018A000BD4680BC704700BF1F85EB51480100203A
:1018B00080B483B000AF78600F497A6813465B004C
:1018C00013449B000B4419680B487A6813465B006D
:1018D00013449B0003440433196007497A68134694
:1018E0005B0013449B000B44083300221A6000BFC6
:1018F0000C37BD4680BC70474801002080B483B0DF
:1019000000AF00237B6035E01F497A6813465B0017
:1019100013449B000B4404331B68002B27DD1A493A
:101920007A6813465B0013449B000B4404331B6826
:10193000591E15487A6813465B0013449B00034404
:101940000433196010497A6813465B0013449B0006
:101950000B4404331B68002B09DC0B497A681346DF
:101960005B0013449B000B44083301221A607B6820
:1019700001337B607B68042BC6DD00BF00BF0C37E2
:10198000BD4680BC704700BF48010020FFF752FFF2
:101990000B480C490C4A002302E0D458C4500433CD
:1019A000C4188C42F9D3094A094C002301E01360A2
:1019B0000432A242FBD301F01DFBFFF785FD704707
:1019C0000000002050000020DC3100085000002002
:1019D00088010020FEE7000080B500AF084B1B68BF
:1019E000074A43F010031360032000F047F90F206B
:1019F00000F008F8FFF796FE0023184680BD00BFF0
:101A00000020024080B582B000AF7860124B1A68A7
:101A1000124B1B7819464FF47A73B3FBF1F3B2FB08
:101A2000F3F3184600F05FF90346002B01D00123C1
:101A30000EE07B680F2B0AD8002279684FF0FF3048
:101A400000F027F9064A7B681360002300E00123B9
:101A500018460837BD4680BD440000204C000020D9
:101A60004800002080B400AF054B1B781A46054B98
:101A70001B681344034A136000BFBD4680BC704717
:101A80004C0000208401002080B400AF024B1B6892
:101A90001846BD4680BC70478401002080B584B0E4
:101AA00000AF7860FFF7F0FFB8607B68FB60FB6811
:101AB000B3F1FF3F05D00A4B1B781A46FB6813446D
:101AC000FB6000BFFFF7E0FF0246BB68D31AFA686D
:101AD0009A42F7D800BF00BF1037BD4680BD00BF97
:101AE0004C00002080B485B000AF78607B6803F0C4
:101AF0000703FB600C4BDB68BB60BA684FF6FF0363
:101B00001340BB60FB681A02BB68134343F0BF631A
:101B100043F40033BB60044ABB68D36000BF143792
:101B2000BD4680BC704700BF00ED00E080B400AF50
:101B3000044BDB681B0A03F007031846BD4680BC54
:101B4000704700BF00ED00E080B483B000AF0346F3
:101B5000FB7197F90730002B0BDBFB7903F01F02B9
:101B6000064997F907305B09012000FA02F241F8B3
:101B7000232000BF0C37BD4680BC704700E100E069
:101B800080B483B000AF03463960FB7197F907302A
:101B9000002B0ADB3B68DAB20C4997F907301201D7
:101BA000D2B20B4483F800230AE03B68DAB208495A
:101BB000FB7903F00F03043B1201D2B20B441A76F7
:101BC00000BF0C37BD4680BC704700BF00E100E09D
:101BD00000ED00E080B489B000AFF860B9607A60D1
:101BE000FB6803F00703FB61FB69C3F10703042BE8
:101BF00028BF0423BB61FB690433062B02D9FB69B0
:101C0000033B00E000237B614FF0FF32BB6902FA27
:101C100003F3DA43BB681A407B699A404FF0FF3107
:101C20007B6901FA03F3D9437B680B4013431846E1
:101C30002437BD4680BC704780B582B000AF786065
:101C40007B68013BB3F1807F01D301230FE00A4A97
:101C50007B68013B53600F214FF0FF30FFF790FF8F
:101C6000054B00229A60044B07221A600023184695
:101C70000837BD4680BD00BF10E000E080B582B0EF
:101C800000AF78607868FFF72DFF00BF0837BD46CA
:101C900080BD80B586B000AF0346B9607A60FB7343
:101CA00000237B61FFF742FF78617A68B968786941
:101CB000FFF790FF024697F90F3011461846FFF7DD
:101CC0005FFF00BF1837BD4680BD80B582B000AF52
:101CD0000346FB7197F907301846FFF735FF00BF41
:101CE0000837BD4680BD80B582B000AF78607868A7
:101CF000FFF7A2FF034618460837BD4680BD000027
:101D000080B48BB000AF7860396000237B62002321
:101D10003B6248E101227B6A02FA03F3FB613B6804
:101D20001B68FA691340BB61BA69FB699A4240F0CB
:101D300037813B685B68A34A93425ED0A14A9342D5
:101D400075D8A14A934258D09F4A93426FD89F4A70
:101D5000934252D09D4A934269D89D4A93424CD0B7
:101D60009B4A934263D89B4A934246D0994A9342F6
:101D70005DD8122B2AD8122B59D801A252F823F081
:101D8000FB1D0008D51D0008E71D0008291E0008DE
:101D90002F1E00082F1E00082F1E00082F1E0008EF
:101DA0002F1E00082F1E00082F1E00082F1E0008DF
:101DB0002F1E00082F1E00082F1E00082F1E0008CF
:101DC0002F1E0008DD1D0008F11D0008824A934205
:101DD00013D02CE03B68DB683B6229E03B68DB68A2
:101DE00004333B6224E03B68DB6808333B621FE05E
:101DF0003B68DB680C333B621AE03B689B68002B56
:101E000002D104233B6213E03B689B68012B05D1A0
:101E100008233B627B68FA691A6109E008233B6288
:101E20007B68FA695A6103E000233B6200E000BF6F
:101E3000BB69FF2B01D87B6801E07B6804337B61C1
:101E4000BB69FF2B02D87B6A9B0002E07B6A083BE0
:101E50009B003B617B691A680F213B6901FA03F320
:101E6000DB431A40396A3B6901FA03F31A437B6981
:101E70001A603B685B6803F08053002B00F0908091
:101E8000564B9B69554A43F001039361534B9B6941
:101E900003F00103BB60BB68514A7B6A9B080233B5
:101EA00052F82330FB607B6A03F003039B000F2290
:101EB00002FA03F3DB43FA681340FB607B68494A8C
:101EC00093420DD07B68484A934207D07B68474ACB
:101ED000934201D1022304E0032302E0012300E046
:101EE00000237A6A02F0030292009340FA681343D7
:101EF000FB603B497B6A9B080233FA6841F8232068
:101F00003B685B6803F48013002B06D0384B9A685B
:101F10003749BB6913438B6006E0354B9A68BB6950
:101F2000DB43334913408B603B685B6803F4001369
:101F3000002B06D02E4BDA682D49BB691343CB60CA
:101F400006E02B4BDA68BB69DB4329491340CB60C1
:101F50003B685B6803F40033002B06D0244B5A68BF
:101F60002349BB6913434B6006E0214B5A68BB69A8
:101F7000DB431F4913404B603B685B6803F48033CD
:101F8000002B06D01A4B1A681949BB6913430B6022
:101F900006E0174B1A68BB69DB43154913400B6019
:101FA0007B6A01337B623B681A687B6A22FA03F31F
:101FB000002B7FF4AFAE00BF00BF2C37BD4680BC06
:101FC000704700BF000032100000311000002210E6
:101FD000000021100000121000001110001002403B
:101FE0000000014000080140000C014000100140C9
:101FF0000004014080B485B000AF78600B467B8060
:102000007B689A687B881340002B02D00123FB7306
:1020100001E00023FB73FB7B18461437BD4680BCF0
:10202000704780B483B000AF78600B467B80134666
:102030007B707B78002B03D07A887B681A6103E081
:102040007B881A047B681A6100BF0C37BD4680BCD0
:10205000704780B485B000AF78600B467B807B68AA
:10206000DB68FB607A88FB6813401A04FB68D9437D
:102070007B880B401A437B681A6100BF1437BD464A
:1020800080BC704780B586B000AF78607B68002B5D
:1020900001D101236CE27B681B6803F00103002B74
:1020A00000F08780924B5B6803F00C03042B0CD08C
:1020B0008F4B5B6803F00C03082B12D18C4B5B68D1
:1020C00003F48033B3F5803F0BD1894B1B6803F4D5
:1020D0000033002B6CD07B685B68002B68D1012338
:1020E00046E27B685B68B3F5803F06D1804B1B6896
:1020F0007F4A43F4803313602EE07B685B68002BDB
:102100000CD17B4B1B687A4A23F480331360784BE5
:102110001B68774A23F4802313601DE07B685B68AB
:10212000B3F5A02F0CD1724B1B68714A43F4802386
:1021300013606F4B1B686E4A43F4803313600BE0EF
:102140006B4B1B686A4A23F480331360684B1B682F
:10215000674A23F4802313607B685B68002B13D0ED
:10216000FFF792FC386108E0FFF78EFC02463B69FE
:10217000D31A642B01D90323FAE15D4B1B6803F4E6
:102180000033002BF0D014E0FFF77EFC386108E04C
:10219000FFF77AFC02463B69D31A642B01D903236B
:1021A000E6E1534B1B6803F40033002BF0D100E051
:1021B00000BF7B681B6803F00203002B63D04C4B0D
:1021C0005B6803F00C03002B0BD0494B5B6803F0FA
:1021D0000C03082B1CD1464B5B6803F48033002BA7
:1021E00016D1434B1B6803F00203002B05D07B681C
:1021F0001B69012B01D00123BAE13D4B1B6823F081
:10220000F8027B685B69DB00394913430B603AE0F5
:102210007B681B69002B20D0364B01221A60FFF728
:1022200033FC386108E0FFF72FFC02463B69D31A04
:10223000022B01D903239BE12D4B1B6803F0020302
:10224000002BF0D02A4B1B6823F0F8027B685B69F7
:10225000DB00274913430B6015E0264B00221A6070
:10226000FFF712FC386108E0FFF70EFC02463B69FD
:10227000D31A022B01D903237AE11D4B1B6803F00B
:102280000203002BF0D17B681B6803F00803002BCE
:102290003AD07B689B69002B19D0174B01221A603A
:1022A000FFF7F2FB386108E0FFF7EEFB02463B69FF
:1022B000D31A022B01D903235AE10D4B5B6A03F0B9
:1022C0000203002BF0D0012000F09AFA1CE00A4B28
:1022D00000221A60FFF7D8FB38610FE0FFF7D4FB4C
:1022E00002463B69D31A022B08D9032340E100BF01
:1022F0000010024000004242800442429E4B5B6A52
:1023000003F00203002BE9D17B681B6803F0040390
:10231000002B00F0A6800023FB75974BDB6903F0D0
:102320008053002B0DD1944BDB69934A43F08053CB
:10233000D361914BDB6903F08053BB60BB68012321
:10234000FB758E4B1B6803F48073002B18D18B4BED
:102350001B688A4A43F480731360FFF795FB38616A
:1023600008E0FFF791FB02463B69D31A642B01D9C1
:102370000323FDE0814B1B6803F48073002BF0D036
:102380007B68DB68012B06D17B4B1B6A7A4A43F0E2
:10239000010313622DE07B68DB68002B0CD1764BC8
:1023A0001B6A754A23F001031362734B1B6A724A5E
:1023B00023F0040313621CE07B68DB68052B0CD15F
:1023C0006D4B1B6A6C4A43F0040313626A4B1B6A31
:1023D000694A43F0010313620BE0674B1B6A664ACC
:1023E00023F001031362644B1B6A634A23F0040366
:1023F00013627B68DB68002B15D0FFF745FB386163
:102400000AE0FFF741FB02463B69D31A41F28832EA
:10241000934201D90323ABE0574B1B6A03F002033D
:10242000002BEED014E0FFF72FFB38610AE0FFF736
:102430002BFB02463B69D31A41F28832934201D901
:10244000032395E04C4B1B6A03F00203002BEED1F3
:10245000FB7D012B05D1484BDB69474A23F08053B4
:10246000D3617B68DB69002B00F08180424B5B68A5
:1024700003F00C03082B61D07B68DB69022B46D18B
:102480003F4B00221A60FFF7FFFA386108E0FFF7C0
:10249000FBFA02463B69D31A022B01D9032367E0FA
:1024A000354B1B6803F00073002BF0D17B681B6A6F
:1024B000B3F5803F08D1304B5B6823F400327B6872
:1024C0009B682D4913434B602B4B5B6823F47412BC
:1024D0007B68196A7B685B6A0B43274913434B602F
:1024E000274B01221A60FFF7CFFA386108E0FFF7A7
:1024F000CBFA02463B69D31A022B01D9032337E0FA
:102500001D4B1B6803F00073002BF0D02FE01C4B19
:1025100000221A60FFF7B8FA386108E0FFF7B4FA52
:1025200002463B69D31A022B01D9032320E0124B48
:102530001B6803F00073002BF0D118E07B68DB69A7
:10254000012B01D1012313E00B4B5B68FB60FB689F
:1025500003F480327B681B6A9A4206D1FB6803F45D
:1025600070127B685B6A9A4201D0012300E000236D
:1025700018461837BD4680BD00100240007000406C
:102580006000424280B584B000AF786039607B68FB
:10259000002B01D10123D0E06A4B1B6803F0070335
:1025A0003A689A4210D9674B1B6823F007026549C5
:1025B0003B6813430B60634B1B6803F007033A68E7
:1025C0009A4201D00123B8E07B681B6803F0020344
:1025D000002B20D07B681B6803F00403002B05D080
:1025E000594B5B68584A43F4E06353607B681B684F
:1025F00003F00803002B05D0534B5B68524A43F4A9
:1026000060535360504B5B6823F0F0027B689B681B
:102610004D4913434B607B681B6803F00103002B9B
:1026200040D07B685B68012B07D1474B1B6803F4E4
:102630000033002B15D101237FE07B685B68022B00
:1026400007D1414B1B6803F00073002B09D1012314
:1026500073E03D4B1B6803F00203002B01D1012303
:102660006BE0394B5B6823F003027B685B6836499B
:1026700013434B60FFF708FAF8600AE0FFF704FA2B
:102680000246FB68D31A41F28832934201D90323F0
:1026900053E02D4B5B6803F00C027B685B689B008A
:1026A0009A42EBD1274B1B6803F007033A689A4222
:1026B00010D2244B1B6823F0070222493B681343C6
:1026C0000B60204B1B6803F007033A689A4201D065
:1026D000012332E07B681B6803F00403002B08D061
:1026E000194B5B6823F4E0627B68DB68164913438F
:1026F0004B607B681B6803F00803002B09D0124B6A
:102700005B6823F460527B681B69DB000E4913434E
:102710004B6000F021F802460B4B5B681B0903F08D
:102720000F030A49CB5C22FA03F3094A1360094BF1
:102730001B681846FFF766F9002318461037BD4698
:1027400080BD00BF0020024000100240B0310008F0
:10275000440000204800002080B487B000AF002370
:10276000FB600023BB6000237B6100237B600023B0
:102770003B611E4B5B68FB60FB6803F00C03042BA2
:1027800002D0082B03D027E0194B3B6127E0FB6800
:102790009B0C03F00F03174AD35C7B60FB6803F4C8
:1027A0008033002B10D0114B5B685B0C03F00103EE
:1027B000114AD35CBB607B680D4A02FB03F2BB6825
:1027C000B2FBF3F37B6104E07B680C4A02FB03F38A
:1027D0007B617B693B6102E0054B3B6100BF3B696C
:1027E00018461C37BD4680BC704700BF0010024031
:1027F00000127A00C0310008D031000800093D0005
:1028000080B485B000AF78600A4B1B680A4AA2FB0F
:1028100003235B0A7A6802FB03F3FB6000BFFB68DB
:102820005A1EFA60002BF9D100BF00BF1437BD4615
:1028300080BC704744000020D34D621080B582B048
:1028400000AF78607B68002B01D1012341E07B68F9
:1028500093F83D30DBB2002B06D17B68002283F871
:102860003C207868FEF790FF7B68022283F83D20C9
:102870007B681A687B6804331946104600F056FAE4
:102880007B68012283F846207B68012283F83E2082
:102890007B68012283F83F207B68012283F8402077
:1028A0007B68012283F841207B68012283F8422063
:1028B0007B68012283F843207B68012283F844204F
:1028C0007B68012283F845207B68012283F83D2044
:1028D000002318460837BD4680BD000080B485B08F
:1028E00000AF78607B6893F83D30DBB2012B01D0FC
:1028F000012335E07B68022283F83D207B681B685A
:10290000DA687B681B6842F00102DA607B681B684A
:10291000164A934209D07B681B68B3F1804F04D0FC
:102920007B681B68124A934211D17B681B689B68C5
:1029300003F00703FB60FB68062B10D07B681B6865
:102940001A687B681B6842F001021A6007E07B6826
:102950001B681A687B681B6842F001021A6000233A
:1029600018461437BD4680BC704700BF002C01409C
:102970000004004080B584B000AF78607B681B68BD
:10298000DB68FB607B681B681B69BB60BB6803F08E
:102990000203002B20D0FB6803F00203002B1BD0A6
:1029A0007B681B686FF002021A617B6801221A774C
:1029B0007B681B689B6903F00303002B03D07868D6
:1029C00000F098F905E0786800F08BF9786800F07D
:1029D0009AF97B6800221A77BB6803F00403002B86
:1029E00020D0FB6803F00403002B1BD07B681B681E
:1029F0006FF004021A617B6802221A777B681B68F9
:102A00009B6903F44073002B03D0786800F072F9DF
:102A100005E0786800F065F9786800F074F97B6883
:102A200000221A77BB6803F00803002B20D0FB6854
:102A300003F00803002B1BD07B681B686FF00802B3
:102A40001A617B6804221A777B681B68DB6903F0D4
:102A50000303002B03D0786800F04CF905E0786898
:102A600000F03FF9786800F04EF97B6800221A7791
:102A7000BB6803F01003002B20D0FB6803F01003A9
:102A8000002B1BD07B681B686FF010021A617B68FB
:102A900008221A777B681B68DB6903F44073002BFC
:102AA00003D0786800F026F905E0786800F019F99D
:102AB000786800F028F97B6800221A77BB6803F079
:102AC0000103002B0CD0FB6803F00103002B07D09F
:102AD0007B681B686FF001021A617868FEF710FED0
:102AE000BB6803F08003002B0CD0FB6803F080036D
:102AF000002B07D07B681B686FF080021A61786832
:102B000000F06FFABB6803F04003002B0CD0FB68A9
:102B100003F04003002B07D07B681B686FF0400276
:102B20001A61786800F0F8F8BB6803F02003002B06
:102B30000CD0FB6803F02003002B07D07B681B68D8
:102B40006FF020021A61786800F042FA00BF103777
:102B5000BD4680BD80B584B000AF78603960002389
:102B6000FB737B6893F83C30012B01D10223B4E066
:102B70007B68012283F83C207B68022283F83D2099
:102B80007B681B689B68BB60BB6823F07703BB60F6
:102B9000BB6823F47F43BB607B681B68BA689A609C
:102BA0003B681B68B3F5005F3ED0B3F5005F00F2F1
:102BB0008780B3F5805F00F08680B3F5805F7FD8B3
:102BC000702B1AD0702B7BD8602B50D0602B77D80D
:102BD000502B3CD0502B73D8402B58D0402B6FD863
:102BE000302B64D0302B6BD8202B60D0202B67D8B3
:102BF000002B5CD0102B5AD062E07B6818683B68D1
:102C000099683B685A683B68DB6800F06AF97B6842
:102C10001B689B68BB60BB6843F07703BB607B6845
:102C20001B68BA689A604FE07B6818683B689968CF
:102C30003B685A683B68DB6800F053F97B681B68A7
:102C40009A687B681B6842F480429A603CE07B682B
:102C500018683B6859683B68DB681A4600F0CAF898
:102C60007B681B685021184600F021F92CE07B6836
:102C700018683B6859683B68DB681A4600F0E8F85A
:102C80007B681B686021184600F011F91CE07B6826
:102C900018683B6859683B68DB681A4600F0AAF878
:102CA0007B681B684021184600F001F90CE07B6846
:102CB0001A683B681B681946104600F0F8F803E0F4
:102CC0000123FB7300E000BF7B68012283F83D20F5
:102CD0007B68002283F83C20FB7B18461037BD46FA
:102CE00080BD80B483B000AF786000BF0C37BD46B4
:102CF00080BC704780B483B000AF786000BF0C37F1
:102D0000BD4680BC704780B483B000AF786000BF20
:102D10000C37BD4680BC704780B483B000AF78608C
:102D200000BF0C37BD4680BC7047000080B485B042
:102D300000AF786039607B681B68FB607B682B4A5A
:102D4000934207D07B68B3F1804F03D07B68284A59
:102D5000934208D1FB6823F07003FB603B685B681B
:102D6000FA681343FB607B68204A934207D07B6874
:102D7000B3F1804F03D07B681D4A934208D1FB68B2
:102D800023F44073FB603B68DB68FA681343FB6025
:102D9000FB6823F080023B685B691343FB607B6840
:102DA000FA681A603B689A687B68DA623B681A685E
:102DB0007B689A627B680D4A934203D13B681A692B
:102DC0007B681A637B6801225A617B681B6903F088
:102DD0000103002B05D07B681B6923F001027B688F
:102DE0001A6100BF1437BD4680BC7047002C0140FB
:102DF0000004004080B487B000AFF860B9607A602A
:102E0000FB681B6A7B61FB681B6A23F00102FB689D
:102E10001A62FB689B693B613B6923F0F0033B61ED
:102E20007B681B013A6913433B617B6923F00A030A
:102E30007B617A69BB6813437B61FB683A699A617D
:102E4000FB687A691A6200BF1C37BD4680BC7047B8
:102E500080B487B000AFF860B9607A60FB681B6A25
:102E60007B61FB681B6A23F01002FB681A62FB6837
:102E70009B693B613B6923F470433B617B681B03A7
:102E80003A6913433B617B6923F0A0037B61BB6814
:102E90001B017A6913437B61FB683A699A61FB689D
:102EA0007A691A6200BF1C37BD4680BC704780B487
:102EB00085B000AF786039607B689B68FB60FB6819
:102EC00023F07003FB603A68FB68134343F0070389
:102ED000FB607B68FA689A6000BF1437BD4680BC0F
:102EE000704780B487B000AFF860B9607A603B602B
:102EF000FB689B687B617B6923F47F437B613B6854
:102F00001A027B681A43BB6813437A6913437B61D7
:102F1000FB687A699A6000BF1C37BD4680BC704769
:102F200080B485B000AF786039607B6893F83C303E
:102F3000012B01D1022341E07B68012283F83C2070
:102F40007B68022283F83D207B681B685B68FB601E
:102F50007B681B689B68BB60FB6823F07003FB60A9
:102F60003B681B68FA681343FB607B681B68FA6860
:102F70005A607B681B68144A934209D07B681B68BF
:102F8000B3F1804F04D07B681B68104A93420CD188
:102F9000BB6823F08003BB603B685B68BA6813437F
:102FA000BB607B681B68BA689A607B68012283F803
:102FB0003D207B68002283F83C200023184614370C
:102FC000BD4680BC704700BF002C0140000400409B
:102FD00080B483B000AF786000BF0C37BD4680BCC2
:102FE000704780B483B000AF786000BF0C37BD4637
:102FF00080BC704770B500260C4D0D4C641BA410AE
:10300000A64209D100F0A4F800260A4D0A4C641B20
:10301000A410A64205D170BD55F8043B984701366F
:10302000EEE755F8043B98470136F2E7D431000843
:10303000D4310008D4310008D831000803460244D6
:10304000934200D1704703F8011BF9E7000000002C
:103050002DE9F843C1F30A58A8F2FF36132E0246B1
:103060000B4607460C46054631DC002E12DA34A327
:10307000D3E90023FDF79CF900220023FDF7CCFBE8
:1030800028B1002C56DB3C4358D000252E4C23465B
:103090002F4625E02D4A42FA06F801EA08020243CB
:1030A0001ED027A3D3E90023FDF782F900220023D5
:1030B000FDF7B2FB0028EAD0002CC2BF4FF480130A
:1030C00043FA06F6A419002524EA0804DFE7332EA4
:1030D0000ADDB6F5806F03D1FDF76AF907460B46A6
:1030E00038461946BDE8F8834FF0FF32A8F213487E
:1030F00022FA08F818EA000FF2D011A3D3E900234E
:10310000FDF756F900220023FDF786FB0028BED00C
:10311000002C02DD142E03D1013425EA0805B6E7A0
:103120000123C6F1340603FA06F63544BD4238BF22
:10313000E418F2E700254FF00044A8E72546A6E78B
:103140009C7500883CE4377E0000F03FFFFF0F00D5
:10315000F8B500BFF8BC08BC9E467047F8B500BF84
:08316000F8BC08BC9E46704754
:103168000000000000000101000001010101000051
:103178000100000100000000000101000100000141
:103188000100000001000001000000010000000033
:103198000000000001010101000000000000000023
:1031A8000000000100000000000000000000000016
:1031B80001020304060708090203040506070809B3
:0C31C8000A0B0C0D0E0F1010010200008D
:0431D40035010008B9
:0431D80011010008D9
:1031DC000100020004000800100020004000000064
:1031EC008000000100020004000800100020000014
:1031FC0000040008001000800A000000030000001A
:10320C0007000000200002000400080040008000BD
:10321C000001000000127A00100000000100000004
:040000050800198D49
:00000001FF
